:10000000830100308A000428203084006D300F20E6
:1000100083010A128A11E72804068001840A040673
:10002000031D0C28003483120313FC00FD1B212840
:100030007D1B29287D088A007C08FC0A0319FD0A1B
:10004000820083137D1883177C08FC0A8400000853
:1000500008002034443443342034563400342034EF
:1000600041344334203456340034253430342E3473
:0600700032346634003456
:1000780083120313BA003A0E0F39F0000808F0395A
:1000880070048800071507113A080F39F0000808AE
:10009800F03970048800071507110A128A158C2593
:1000A8000A128A1103138312080083120313BA0178
:1000B800BB013B08803AF0008F307002A130031971
:1000C8003A02031C682869286A287B2883120313CC
:1000D800BA0A0319BB0A3B08803AF0008F30700255
:1000E800A13003193A02031C7A287B286A280313D3
:1000F800831208008312031307149428831203132E
:100108005308FD005208D20A0319D30A0A128A11A9
:1001180013200A128A110A128A154E250A128A1108
:10012800831203135308FD0052080A128A11132080
:100138000A128A110038031DA228A3288228031353
:10014800831208008F300A128A1534250A128A1180
:10015800CA28831203133B08FD003A08BA0A031998
:10016800BB0A0A128A1113200A128A110A128A1566
:100178004E250A128A111C300A128A1534250A12D1
:100188008A110A128A1159200A128A11831203133A
:100198003B08FD003A080A128A1113200A128A1134
:1001A8000038031DD828D928AD280A128A115920E9
:1001B8000A128A1101300A128A1534250A128A1184
:1001C800031383120800FF30831603138500881277
:1001D80008120811881008108815831208110812CF
:1001E800881681309F0083169F010A128A152125DF
:1001F8000A128A110A128A1577250A128A11803082
:100208000A128A1534250A128A110A128A155B25E0
:100218000A128A112B2983120313881D1429152900
:100228001D2908150816A101A10AA201A301A4010C
:1002380026298312031308110812A101A201A301A0
:10024800A30AA4010A128A15CB250A128A110F29BA
:100258000A128A1104286430F2000030F300831275
:1002680003133B08F1003A08F0000A128A117226BB
:100278000A128A1174083038BA006430F20000306B
:10028800F3003B08F1003A08F0000A128A117226BE
:100298000A128A117008BA007108BB000A30F2000D
:1002A8000030F3003B08F1003A08F0000A128A1106
:1002B80072260A128A1174083038BB000A30F2001C
:1002C8000030F3003B08F1003A08F0000A128A11E6
:1002D80072260A128A1170083038BC003A080A12CD
:1002E8008A154E250A128A113B080A128A154E25CC
:1002F8000A128A113C080A128A154E250A128A1116
:100308000313831208008301DC00D8015208D600C9
:10031800002D5B08253A031DF12CFF30DA00D901C6
:10032800D701AD2CDC0803199D295C0884008313D0
:100338008001580808000230D6075602840083134B
:100348000008EF2CD717AD2CD70AAE290830DA07EA
:10035800FE30DA07D71FC0290430D60756028400BA
:1003680083130008F000840A0008F100840A0008DA
:10037800F200840A0008D0290230D6075602840009
:1003880083130008F000840A0008F100700871085F
:100398000030F11BFF30F200F3007008E50071082F
:1003A800E6007208E7007308E800571CFA29E81FFE
:1003B800092A6508F0006608F1006708F200680875
:1003C800F300F009F109F209F309F00A0319F10A37
:1003D8000319F20A0319F30A7008E5007108E60028
:1003E8007208E7007308E800D9030A2AD71B092A0C
:0803F8006608F1006508F00041
:10040000F201F301E5007108E6007208E7007308E5
:10041000E800D7010B30DA075A08F400F501F601BD
:10042000F7016508F0006608F1006708F200680847
:10043000F3000A128A113B277408DB005A08F40003
:10044000F501F601F7016530840083130A128A1161
:10045000B7270A128A1183120313E901E90AEA0194
:10046000EB01EC016C086802031D402A6B0867026F
:10047000031D402A6A086602031D402A69086502B6
:10048000031C6E2A5A08F400F501F601F7016930E1
:10049000840083130A128A11C1260A128A11831258
:1004A0000313D903322AD80ADC080319642A5C082A
:1004B0008400831357195E2A20305F2A3030800071
:1004C00083120313DC0A6E2A5719682A2030692A1E
:1004D00030300A128A151F250A128A11D9035908C9
:1004E000803A7F3E0318532A571C832AD80ADC0817
:1004F00003197F2A5C08840083132D30C62A2D300F
:100500000A128A151F255A08F400F501F601F701B1
:100510006930840083130A128A11B7270A128A11DC
:1005200073087204710470040319CC2A8312031334
:100530006908F4006A08F5006B08F6006C08F7001B
:100540006508F0006608F1006708F2006808F3002B
:100550000A128A113B275A08F400F501F601F70147
:100560000A128A113B270A128A117408D900803AAC
:10057000763E031CBD2A0730D907D80ADC080319C8
:10058000C92A5C08840083135908303E8000DC0AC5
:10059000832A5908303E802A0A30831203135B02F3
:1005A000031CD42A0730DB07D80ADC080319E02A29
:1005B0005C08840083135B08303E8000DC0AE72A75
:1005C0005B08303E0A128A151F250A128A11D71CB1
:1005D000002DD80ADC080319F42A5C088400831370
:1005E0002E308000DC0AFA2A2E300A128A151F25C6
:1005F0000A128A115D08E5005E08E6005F08E70060
:100600006008E8000430D7005508D900F32B033008
:10061000D6075602840083130008E900840A000804
:10062000EA00840A0008EB0007305A02031C1A2B68
:100630000630DA005A08D500D701F301F401F501BC
:100640006908F0006A08F1006B08F2000A128A11CA
:10065000D3250A128A110318412BD701D70A69083A
:10066000F0006A08F1006B08F2000A128A112527CF
:100670000A128A117008E9007108EA007208EB009A
:10068000D903D508031D5F2B6908F3006A08F4003D
:100690006B08F500F001F1013F30F2000A128A11F7
:1006A000A4250A128A113C260A128A117008E50054
:1006B0007108E6007208E7007308E800F32B550A9A
:1006C000D9026908F0006A08F1006B08F2000A120A
:1006D0008A113C267008E5007108E6007208E70000
:1006E0007308E8006508F0006608F1006708F2008A
:1006F0006808F3000A128A1164267008F300710872
:10070000F4007208F5006930840083130A128A111C
:100710007F2583120313D714E101E10AE201E3010B
:10072000E401F3012030F4004130F5006930840029
:1007300083130A128A11F2250A30F400F501F6013A
:10074000F701831203136130840083130A128A11A4
:10075000C1260A128A1183120313DA0B912BF301BB
:10076000F4013F30F5006930840083130A128A11C6
:100770008125831203136908F0006A08F1006B08F1
:10078000F2000A128A113C260A128A117008DD0052
:100790007108DE007208DF007308E0006408600280
:1007A000031DDC2B63085F02031DDC2B62085E0265
:1007B000031DDC2B61085D02031CF32B6108DD02C5
:1007C0006208031C620FDE026308031C630FDF0272
:1007D0006408031C640AE002E50A0319E60A031927
:1007E000E70A0319E80A0A30DA000C2AD80ADC08FA
:1007F0000319012C5C088400831320308000DC0A7C
:10080000072C20300A128A151F250A128A11D903D3
:100810005908803A7E3E0318F62B0230D60756025E
:10082000840083130008DB00F12C0230D607560247
:10083000840083130008E900840A0008EA00DB0151
:100840005B086907FC006A08FD007C080318FD0AC4
:100850000A128A1113200A128A1100380319322C45
:10086000DB0A202C5A085B020318382C5B08DA00DC
:100870005A08D91B6F2CFF3A5907031C6F2CD80A52
:10088000DC0803194A2C5C088400831320308000A4
:10089000DC0A502C20300A128A151F250A128A11F0
:1008A000D903382C6A08FD0069080A128A1113203E
:1008B0000A128A11DB00E90A0319EA0AD80ADC08DD
:1008C0000319692C5C08840083135B088000DC0A30
:1008D0006F2C5B080A128A151F250A128A11DA0387
:1008E0005A0F522C002D5408FD0053080A128A1189
:1008F00013200A128A112A3A031D852C0230D607CA
:100900005602840083130008A92C5408FD005308E4
:100910000A128A111320D03EDA00D30A0319D40A2E
:100920005408FD0053080A128A1113200A128A1172
:10093000DB0030305B02031CAD2C3A305B02031845
:10094000AD2C0A30F1005A080A128A1528255B07D7
:10095000D03EDA00D30A0319D40A5408FD00530824
:10096000D30A0319D40A0A128A1113200A128A110F
:10097000DB00003A031996292A3A03199F29043A01
:100980000319732C763A0319AA293B3A0319082C48
:10099000073A0319A829023A0319072B0A3A03193F
:1009A000A629033A0319AC291C3A0319152C063A57
:1009B0000319AE290D3A0319AA2930305B02031C32
:1009C000F12C3A305B020318F12C0A30F10059087F
:1009D0000A128A1528250A128A115B07D03ED9000F
:1009E000AD2CD80ADC080319FC2C5C0884008313A6
:1009F0005B088000DC0A002D5B080A128A151F259F
:100A00005408FD005308D30A0319D40A0A128A11A4
:100A100013200A128A11DB00DB08031D8D29DC0874
:100A20000319162D5C088400831380015808080000
:100A30008408031900347208800084037108800060
:100A40008403700880000034F101F201F301F01F0B
:100A5000642EF103F203F3035F2EF101F201F301BF
:100A6000642EF801710D720DF600760803193C2D05
:100A7000F80DF201F1170800F001F101F201003464
:100A8000F810740D750DF700770803194C2D031835
:100A9000F814F501F4170800F701F301F401F5016A
:100AA0000800760803193C2DF113F80C760CF200BF
:100AB0000318F117182DF608031D6F2DF001F10131
:100AC000F201182D72030319F00A0319F10A031930
:100AD000F20A0310F20CF10CF00CF60A5B2DF2088E
:100AE000031D622D7008710403195E2DF11B512D39
:100AF000F60303195E2D0310F00DF10D762D8030F5
:100B0000F5060008F000840A0008F100840A0008D5
:100B1000F200A52D76087702031C992D0319080011
:100B20000310F20CF10CF00CF60A760877028E2D09
:100B30000310F50CF40CF30CF70A7608770603198A
:100B40000800982D8030F5068401312540258A253E
:100B5000781CB22DF009F109F209F00A0319F10A23
:100B60000319F20AF81CBC2DF309F409F509F30A7C
:100B70000319F40A0319F50A7308F0077408031837
:100B8000740FF10775080318750FF207F801F21FCB
:100B90005B2DF009F109F209F00A0319F10A0319B2
:100BA000F20A78145B2D7208750680390319DC2D62
:100BB000750D750801380800F21375087F39720247
:100BC000031DEA2D74087102031DEA2D73087002DB
:100BD0000319080003080238F51B013A83000318C3
:100BE000803808000008F000840A0008F100840A38
:100BF0000008F200FC2D840131254025F901FA019D
:100C0000FB010730F5000310F40CF30C031C132E4A
:100C10007008F90771080318710FFA0772080318B2
:100C2000720FFB070310F00DF10DF20DF50B032E03
:100C30000930F5001F2E0310FB0CFA0CF90C031001
:100C4000F40CF30C031C2E2E7008F907710803181E
:100C5000710FFA0772080318720FFB07F50B1B2EB2
:100C60007A307707F607780CF8067908F0007A08EA
:100C7000F1007B08F2005B2D84013125F301823005
:100C8000F607F61B3C2DF030F607F61B582E1830F1
:100C9000760203183C2DF608031D512E78182D27D7
:100CA0000800F6030310F00DF10DF20DF30D4B2EBD
:100CB0000310F20CF10CF00CF60F582E4E2EF31F11
:100CC000642E78142D27652EF8018E30F6008401ED
:100CD000F30803195B2D0310F30CF20CF10CF00C6C
:100CE000F60A682EF601F11F7C2EF009F00A0319AE
:100CF000F103F1097617F61773088039F606F31F2A
:100D0000882EF209F20A0319F303F309882EF6017B
:100D1000F401F50172087304031D912EF001F10135
:100D200000341F30F6040310F60AF20DF30D031C15
:100D3000942EF30CF20C73087102031DA12E72089D
:100D40007002031CA92E7208F0027308031C730AB8
:100D5000F102F40DF50DF60BF61A992EF61FB52ECD
:100D6000F409F40A0319F503F5097408F20075088B
:100D7000F300761F0034F009F00A0319F103F109BA
:100D800000340008F000840A0008F100840A00081A
:100D9000F200840A0008F300C42F8301EF01720DF2
:100DA000730DED006D080319D92EEF0DF301F21745
:100DB0000800F001F101F201F3010034EF10760DAB
:100DC000770DEE006E080319EA2E0318EF14F701F1
:100DD000F6170800EE01F401F501F601F70108002D
:100DE0006D080319D92EF213EF0C6D0CF3000318E4
:100DF000F217F12FED080319202F73080319102F94
:100E000073030319F00A0319F10A0319F20A03190B
:100E1000F30A0310F30CF20CF10CF00CED0AFA2EAD
:100E200070087104720473040319202FF21BF02E52
:100E3000ED030319202F0310F00DF10DF20D162F05
:100E4000F001F101F201F301F12F710D720D003883
:100E5000031908008030F20608000310FF30F00785
:100E6000F009031CF107F109031CF207F209031C46
:100E7000F307F3090800840183120313ED01F8015D
:100E8000F901FA01FB01740875047604770403196B
:100E90004C2FC030ED05572FF001F101F201F301A5
:100EA000F12F0310F40DF50DF60DF70DED0AF71FF8
:100EB000512FED0A0310F80DF90DFA0DFB0D77080F
:100EC0007302031D6D2F76087202031D6D2F7508C6
:100ED0007102031D6D2F74087002031C7F2F78149C
:100EE0007408F0027508031C750FF1027608031CE4
:100EF000760FF2027708031C770FF3020310F70C4A
:100F0000F60CF50CF40CED036D083F39031D5A2F58
:100F10006D1F972F0310FF30F007F009031CF10736
:100F2000F109031CF207F209031CF307F309700827
:100F3000F4007108F5007208F6007308F7007808ED
:100F4000F0007908F1007A08F2007B08F300ED1F49
:100F5000F12F0310FF30F007F009031CF107F1092E
:100F6000031CF207F209031CF307F309F12F000831
:100F7000F000840A0008F100840A0008F200840AE4
:100F80000008F3003C2F84017008F8007108F90094
:100F90007208FA007308FB00F201F301F001F1019D
:100FA0000310FB0CFA0CF90CF80C031CE52F740869
:100FB000F00775080318750FF10776080318760F08
:100FC000F20777080318770FF307780879047A0493
:100FD0007B040319F12F0310F40DF50DF60DF70D39
:100FE000D02F84080319003473088000840372082A
:100FF000800084037108800084037008800000343E
:101A3E0083010800831603138601870103138312A3
:101A4E000800F0000030711870070310F00D03103D
:101A5E00F10CF108031908002A2D831203138600D6
:101A6E000710BA000A128A1541250A128A150313A5
:101A7E008312080083120313071107150A128A1521
:101A8E008C250A128A15071103138312080083127C
:101A9E00031386000714D4000A128A1541250A1270
:101AAE008A1503138312080001300A128A15342591
:101ABE000A128A150A128A1541250A128A1503136B
:101ACE0083120800831203130710BA003A08803EEF
:101ADE000A128A154E250A128A150313831208005C
:101AEE0038300A128A1534250A128A150C300A1259
:101AFE008A1534250A128A1501300A128A153425E0
:101B0E000A128A1503138312080083120313D501D8
:101B1E00D601EA305602613003195502031C982D86
:101B2E00992D9A2DA82D83120313D50A0319D60ABF
:101B3E00EA305602613003195502031CA72DA82D59
:101B4E009A2D031383120800353083120313D3002A
:101B5E000030D4003A08CF003B08D0003C08D1003A
:101B6E004F30D2003D300A128A1187210A128A158F
:101B7E003D30D2008030D3000A128A117E200A1224
:101B8E008A15031383120800831203139E019F12FA
:101B9E001F129F11A901AA01D92D83120313A90A9D
:101BAE000319AA0A831203132A08803AF000803020
:101BBE007002FA3003192902031CE62DE72DD42DED
:101BCE00831203131F15EB2D831203131F19F02D10
:101BDE00F12DEB2D83120313A0011E08A000200887
:101BEE00F0000A128A112D250A128A15A130F3006F
:021BFE00A03015
:101C0000F4003C30F5000A128A11FB250A128A15ED
:101C10007008AB007108AC007208AD002B08F3002F
:101C20002C08F4002D08F5000030F0004730F100DA
:101C30004330F2000A128A11FB250A128A152B087A
:101C4000F3002C08F4002D08F5000A128A11A425CF
:101C50000A128A157008B4007108B5007208B6003F
:101C6000C0300A128A1534250A128A153608390638
:101C7000031D422E35083806031D422E3408370650
:101C8000031D422E0319452E462EFD2F3408B700A2
:101C90003508B8003608B900CD30F300CC30F40078
:101CA0003D30F5002B08F0002C08F1002D08F20063
:101CB0000A128A11D3250A128A150318602E612E82
:101CC000F62E081488109E019F121F129F15A9015D
:101CD000AA016F2E83120313A90A0319AA0A8312F9
:101CE00003132A08803AF00080307002FA3003199A
:101CF0002902031C7C2E7D2E6A2E831203131F15CE
:101D0000812E831203131F19862E872E812E831294
:101D10000313A0011E08A0002008F0000A128A1177
:101D20002D250A128A15A130F300A030F4003C30B2
:101D3000F5000A128A11FB250A128A157008AE00F6
:101D40007108AF007208B0002E08F3002F08F400ED
:101D50003008F5000030F0004030F1004030F20073
:101D60000A128A11FB250A128A152E08F3002F0881
:101D7000F4003008F5000A128A11A4250A128A1507
:101D80007008B1007108B2007208B3003108BA00DF
:101D90003208BB003308BC000A128A15AB250A12B0
:101DA0008A1521032204031DD62ED72EE12E2F30B3
:101DB000D2000030D3000A128A117E200A128A153E
:101DC000F22E8312031323032404031DE82EE92EAD
:101DD000F22E2930D2000030D3000A128A117E2060
:101DE0000A128A15831203130810FD2F831203139E
:101DF0002B08F3002C08F4002D08F500CD30F0007E
:101E0000CC30F1003D30F2000A128A11D3250A12BB
:101E10008A150318212F0C2F4830F3008130F4006D
:101E20003F30F5002B08F0002C08F1002D08F200DF
:101E30000A128A11D3250A128A150318212F202F7E
:101E4000232F222FB82F881408109E019F121F12D3
:101E50009F15A901AA01312F83120313A90A03199F
:101E6000AA0A831203132A08803AF0008030700215
:101E7000FA3003192902031C3E2F3F2F2C2F831207
:101E800003131F15432F831203131F19482F492FC4
:101E9000432F83120313A0011E08A0002008F000A6
:101EA0000A128A112D250A128A15A130F300A030DA
:101EB000F4003C30F5000A128A11FB250A128A153B
:101EC0007008AE007108AF007208B0002E08F30071
:101ED0002F08F4003008F5000030F0001C30F1004D
:101EE0004230F2000A128A11FB250A128A152E08C6
:101EF000F3002F08F4003008F5000A128A11A42517
:101F00000A128A157008B1007108B2007208B30095
:101F10003108BA003208BB003308BC000A128A1527
:101F2000AB250A128A1521032204031D982F992F2D
:101F3000A32F2F30D2000030D3000A128A117E2046
:101F40000A128A15B42F8312031323032404031DDA
:101F5000AA2FAB2FB42F2930D2000030D3000A12A1
:101F60008A117E200A128A15831203138810FD2F0E
:101F7000831203132B08F3002C08F4002D08F5003E
:101F80004830F0008130F1003F30F2000A128A112F
:101F9000D3250A128A150318CE2FCF2FFD2F8810B4
:101FA00008103408BA003508BB003608BC000A1215
:101FB0008A15AB250A128A1521032204031DE12F7D
:101FC000E22FEC2F2F30D2000030D3000A128A11FA
:101FD0007E200A128A15FD2F831203132303240483
:101FE000031DF32FF42FFD2F2930D2000030D30032
:101FF0000A128A117E200A128A150313831208001E
:00000001FF
