:10000000830100308A00042883010A128A11D92F43
:100F700083120313A001A101A001A101EA30210203
:100F8000603003192002031CC62FC72FC82FD62F8D
:100F900083120313A00A0319A10AEA302102603068
:100FA00003192002031CD52FD62FC82F0313831239
:100FB0000800831603138501860187018801FC2F31
:100FC000FF308312031386000A128A11B8270A120F
:100FD0008A1188010A128A11B8270A128A11FF3071
:100FE00088000A128A11B8270A128A1186010A1289
:100FF0008A11B8270A128A11E02F0A128A110428CE
:00000001FF
