:10000000830100308A00042883010A128A11BC2F60
:100F24000630831603139F0085018601870188011B
:100F340003138312080083120313A001A101EA30F2
:100F44002102603003192002031CA92FAA2FAB2F02
:100F5400B92F83120313A00A0319A10AEA3021024C
:100F6400603003192002031CB82FB92FAB2F0313D1
:100F7400831208000A128A1192270A128A11850123
:100F8400860187018801FC2FFF308312031385003B
:100F94000A128A119D270A128A1185010A128A11DE
:100FA4009D270A128A11FF3086000A128A119D2792
:100FB4000A128A1186010A128A119D270A128A11BD
:100FC400FF3087000A128A119D270A128A118701AD
:100FD4000A128A119D270A128A11FF3088000A1208
:100FE4008A119D270A128A1188010A128A119D27E3
:0C0FF4000A128A11C62F0A128A11042862
:00000001FF
