:10000000830100308A000428203084005C300F20F7
:1000100083010A128A11D52804068001840A040685
:10002000031D0C28003483120313DF00E01B21287A
:10003000601B292860088A005F08DF0A0319E00AAC
:1000400082008313601883175F08DF0A84000008AA
:100050000800253430342E343334663400342534EB
:10006000643400342E342E343A343A34203450344C
:10007000493443342034313420343A343A342E3441
:100080002E340034503449344334203432343A343A
:1000900020340034503449344334203431343A3439
:0400A00020340034D4
:1000A6002F3083120313C2000030C3002708AD00AF
:1000B6002808AE002D30C10027300A128A11D62139
:1000C6000A128A112730C1008030C2000A128A152E
:1000D60085260A128A1114300A128A153D260A123A
:1000E6008A1103138312080083120313A8010A124C
:1000F6008A1507260A128A1114300A128A153D2615
:100106000A128A1108169A28831203132808E00097
:100116002708A70A0319A80A0A128A1113200A1225
:100126008A110A128A15AD260A128A11A80A8312A2
:1001360003132808E00027080A128A1113200A125E
:100146008A110038031DA828A928872883120313BB
:10015600A701B9280A128A15E3250A128A11643002
:100166000A128A153D260A128A11A70A8312031358
:100176002808F200F3010310F20DF30D2708F00032
:10018600F1017108803AF4007308803A7402031D85
:10019600CE2872087002031CD128D228AD2803137A
:1001A60083120800FF30831603138500880181300F
:1001B60083129F0083169F0181309900181518122B
:1001C60083129817181618138C1283168C12981609
:1001D6000A128A1552270A128A1114300A128A152F
:1001E6003D260A128A1100300A128A15D5250A12EE
:1001F6008A1114300A128A153D260A128A110A1229
:100206008A1519260A128A1114300A128A153D26F1
:100216000A128A113230C1000030C2000A128A1551
:1002260085260A128A1110300A128A153D260A12EC
:100236008A110A128A1519260A128A11D2298312DC
:100246000313A701A8012808803AF0008030700245
:10025600FA3003192702031C31293229332944298C
:1002660083120313A70A0319A80A2808803AF00084
:1002760080307002FA3003192702031C43294429EF
:100286003329831203131F154829831203131F19D9
:100296004D294E294829831203131E08A00053290D
:1002A600831203130C1E5829592953298312031349
:1002B600200899005E2983160313981C6329642974
:1002C6005E29831203132008F0000A128A117C2586
:1002D6000A128A11A130F300A030F4003C30F50078
:1002E6000A128A114A260A128A117008A100710898
:1002F600A2007208A30000300A128A15D5250A1238
:100306008A114A30C1000030C2000A128A158526B9
:100316000A128A112108A9002208AA002308AB00A4
:100326000A128A155F260A128A118C1E9B299C299D
:10033600D2298C121A08F0000A128A117C250A1298
:100346008A117008A4007108A5007208A600A130E1
:10035600F300A030F4003C30F50024308400831311
:100366000A128A1141260A128A1140300A128A1587
:10037600D5250A128A114230C1000030C2000A1285
:100386008A1585260A128A112408A9002508AA00BA
:100396002608AB000A128A155F260A128A1122293C
:1003A6000A128A1104288301CB00C7014108C5003F
:1003B6004F2D4A08253A031D402DFF30C900C801BC
:1003C600C601FC2CCB080319EC294B0884008313C7
:1003D6008001470808000230C507450284008313E0
:1003E60000083E2DC617FC2CC60AFD290830C90791
:0A03F600FE30C907C61F0F2A0430AD
:10040000C5074502840083130008F000840A000831
:10041000F100840A0008F200840A00081F2A023052
:10042000C5074502840083130008F000840A000811
:10043000F100700871080030F11BFF30F200F3008A
:100440007008D4007108D5007208D6007308D70070
:10045000461C492AD71F582A5408F0005508F100B5
:100460005608F2005708F300F009F109F209F30900
:10047000F00A0319F10A0319F20A0319F30A7008C2
:10048000D4007108D5007208D6007308D700C803DD
:10049000592AC61B582A5508F1005408F000F201E9
:1004A000F301D4007108D5007208D6007308D70094
:1004B000C6010B30C9074908F400F501F601F70140
:1004C0005408F0005508F1005608F2005708F300F0
:1004D0000A128A113B277408CA004908F400F50182
:1004E000F601F7015430840083130A128A11B727EA
:1004F0000A128A1183120313D801D80AD901DA012A
:10050000DB015B085702031D8F2A5A085602031DA0
:100510008F2A59085502031D8F2A58085402031CBC
:10052000BD2A4908F400F501F601F70158308400AE
:1005300083130A128A11C1260A128A118312031325
:10054000C803812AC70ACB080319B32A4B088400C1
:1005500083134619AD2A2030AE2A30308000831232
:100560000313CB0ABD2A4619B72A2030B82A3030E7
:100570000A128A15C7250A128A11C8034808803A48
:100580007F3E0318A22A461CD22AC70ACB080319A9
:10059000CE2A4B08840083132D30152B2D300A12E0
:1005A0008A15C7254908F400F501F601F70158300E
:1005B000840083130A128A11B7270A128A1173085A
:1005C00072047104700403191B2B8312031358085F
:1005D000F4005908F5005A08F6005B08F7005408C3
:1005E000F0005508F1005608F2005708F3000A120F
:1005F0008A113B274908F400F501F601F7010A12B8
:100600008A113B270A128A117408C800803A763E84
:10061000031C0C2B0730C807C70ACB080319182B7B
:100620004B08840083134808303E8000CB0AD22A4E
:100630004808303ECF2A0A30831203134A02031CB3
:10064000232B0730CA07C70ACB0803192F2B4B08E7
:10065000840083134A08303E8000CB0A362B4A08B8
:10066000303E0A128A15C7250A128A11C61C4F2D60
:10067000C70ACB080319432B4B08840083132E3081
:100680008000CB0A492B2E300A128A15C7250A1280
:100690008A114C08D4004D08D5004E08D6004F08EA
:1006A000D7000430C6004408C800422C0330C507F8
:1006B0004502840083130008D800840A0008D9008A
:1006C000840A0008DA0007304902031C692B06304F
:1006D000C9004908C400C601F301F401F501580836
:1006E000F0005908F1005A08F2000A128A11222675
:1006F0000A128A110318902BC601C60A5808F00086
:100700005908F1005A08F2000A128A1125270A1224
:100710008A117008D8007108D9007208DA00C8037D
:10072000C408031DAE2B5808F3005908F4005A08FA
:10073000F500F001F1013F30F2000A128A11F325B1
:100740000A128A118B260A128A117008D4007108C5
:10075000D5007208D6007308D700422C440AC8029C
:100760005808F0005908F1005A08F2000A128A11DC
:100770008B267008D4007108D5007208D600730863
:10078000D7005408F0005508F1005608F200570849
:10079000F3000A128A11B3267008F3007108F400FE
:1007A0007208F5005830840083130A128A11CE258E
:1007B00083120313C614D001D00AD101D201D30190
:1007C000F3012030F4004130F500583084008313E9
:1007D0000A128A1141260A30F400F501F601F701E8
:1007E000831203135030840083130A128A11C12626
:1007F0000A128A1183120313C90BE02BF301F401CF
:100800003F30F5005830840083130A128A11D02536
:10081000831203135808F0005908F1005A08F20037
:100820000A128A118B260A128A117008CC007108EC
:10083000CD007208CE007308CF0053084F02031D8D
:100840002B2C52084E02031D2B2C51084D02031D68
:100850002B2C50084C02031C422C5008CC0251088F
:10086000031C510FCD025208031C520FCE02530835
:10087000031C530ACF02D40A0319D50A0319D60A56
:100880000319D70A0A30C9005B2AC70ACB08031923
:10089000502C4B088400831320308000CB0A562C48
:1008A00020300A128A15C7250A128A11C80348087F
:1008B000803A7E3E0318452C0230C507450284006D
:1008C00083130008CA00402D0230C507450284008A
:1008D00083130008D800840A0008D900CA014A0816
:1008E0005807DF005908E0005F080318E00A0A1201
:1008F0008A1113200A128A1100380319812CCA0A9E
:100900006F2C49084A020318872C4A08C900490875
:10091000C81BBE2CFF3A4807031CBE2CC70ACB08D5
:100920000319992C4B088400831320308000CB0AD4
:100930009F2C20300A128A15C7250A128A11C80373
:10094000872C5908E00058080A128A1113200A124D
:100950008A11CA00D80A0319D90AC70ACB08031991
:10096000B82C4B08840083134A088000CB0ABE2CA5
:100970004A080A128A15C7250A128A11C903490FA3
:10098000A12C4F2D4308E00042080A128A111320BF
:100990000A128A112A3A031DD42C0230C5074502D7
:1009A000840083130008F82C4308E00042080A1270
:1009B0008A111320D03EC900C20A0319C30A430892
:1009C000E00042080A128A1113200A128A11CA0092
:1009D00030304A02031CFC2C3A304A020318FC2C2B
:1009E0000A30F10049080A128A15C9254A07D03E83
:1009F000C900C20A0319C30A4308E0004208C20A38
:100A00000319C30A0A128A1113200A128A11CA0092
:100A1000003A0319E5292A3A0319EE29043A031981
:100A2000C22C763A0319F9293B3A0319572C073A95
:100A30000319F729023A0319562B0A3A0319F52923
:100A4000033A0319FB291C3A0319642C063A0319CB
:100A5000FD290D3A0319F92930304A02031C402DB3
:100A60003A304A020318402D0A30F10048080A12B1
:100A70008A15C9250A128A114A07D03EC800FC2CE3
:100A8000C70ACB0803194B2D4B08840083134A086F
:100A90008000CB0A4F2D4A080A128A15C725430841
:100AA000E0004208C20A0319C30A0A128A1113207D
:100AB0000A128A11CA00CA08031DDC29CB080319CF
:100AC000652D4B08840083138001470808008408C3
:100AD00003190034720880008403710880008403C5
:100AE000700880000034F101F201F301F01FB32E11
:100AF000F103F203F303AE2EF101F201F301B32E81
:100B0000F801710D720DF600760803198B2DF80DA2
:100B1000F201F1170800F001F101F2010034F810C0
:100B2000740D750DF700770803199B2D0318F81441
:100B3000F501F4170800F701F301F401F5010800CD
:100B4000760803198B2DF113F80C760CF2000318BC
:100B5000F117672DF608031DBE2DF001F101F2011A
:100B6000672D72030319F00A0319F10A0319F20A37
:100B70000310F20CF10CF00CF60AAA2DF208031D7A
:100B8000B12D700871040319AD2DF11BA02DF603D2
:100B90000319AD2D0310F00DF10DC52D8030F506B4
:100BA0000008F000840A0008F100840A0008F2003E
:100BB000F42D76087702031CE82D031908000310B2
:100BC000F20CF10CF00CF60A76087702DD2D03101A
:100BD000F50CF40CF30CF70A7608770603190800F5
:100BE000E72D8030F506840180258F25D925781CD6
:100BF000012EF009F109F209F00A0319F10A0319AB
:100C0000F20AF81C0B2EF309F409F509F30A03198B
:100C1000F40A0319F50A7308F00774080318740F2F
:100C2000F10775080318750FF207F801F21FAA2DD6
:100C3000F009F109F209F00A0319F10A0319F20A9D
:100C40007814AA2D72087506803903192B2E750D9C
:100C5000750801380800F21375087F397202031D08
:100C6000392E74087102031D392E7308700203199E
:100C7000080003080238F51B013A83000318803886
:100C800008000008F000840A0008F100840A000847
:100C9000F2004B2E840180258F25F901FA01FB011A
:100CA0000730F5000310F40CF30C031C622E7008DF
:100CB000F90771080318710FFA0772080318720F09
:100CC000FB070310F00DF10DF20DF50B522E09305C
:100CD000F5006E2E0310FB0CFA0CF90C0310F40C4B
:100CE000F30C031C7D2E7008F90771080318710FAF
:100CF000FA0772080318720FFB07F50B6A2E7A3099
:100D00007707F607780CF8067908F0007A08F10002
:100D10007B08F200AA2D84018025F3018230F607BA
:100D2000F61B8B2DF030F607F61BA72E1830760237
:100D300003188B2DF608031DA02E78182D27080008
:100D4000F6030310F00DF10DF20DF30D9A2E0310C2
:100D5000F20CF10CF00CF60FA72E9D2EF31FB32E04
:100D600078142D27B42EF8018E30F6008401F30894
:100D70000319AA2D0310F30CF20CF10CF00CF60A77
:100D8000B72E0008F000840A0008F100840A000869
:100D9000F200840A0008F300C42F8301DE01720D03
:100DA000730DDC005C080319D92EDE0DF301F21778
:100DB0000800F001F101F201F3010034DE10760DBC
:100DC000770DDD005D080319EA2E0318DE14F70124
:100DD000F6170800DD01F401F501F601F70108003E
:100DE0005C080319D92EF213DE0C5C0CF300031817
:100DF000F217F12FDC080319202F73080319102FA5
:100E000073030319F00A0319F10A0319F20A03190B
:100E1000F30A0310F30CF20CF10CF00CDC0AFA2EBE
:100E200070087104720473040319202FF21BF02E52
:100E3000DC030319202F0310F00DF10DF20D162F16
:100E4000F001F101F201F301F12F710D720D003883
:100E5000031908008030F20608000310FF30F00785
:100E6000F009031CF107F109031CF207F209031C46
:100E7000F307F3090800840183120313DC01F8016E
:100E8000F901FA01FB01740875047604770403196B
:100E90004C2FC030DC05572FF001F101F201F301B6
:100EA000F12F0310F40DF50DF60DF70DDC0AF71F09
:100EB000512FDC0A0310F80DF90DFA0DFB0D770820
:100EC0007302031D6D2F76087202031D6D2F7508C6
:100ED0007102031D6D2F74087002031C7F2F78149C
:100EE0007408F0027508031C750FF1027608031CE4
:100EF000760FF2027708031C770FF3020310F70C4A
:100F0000F60CF50CF40CDC035C083F39031D5A2F7A
:100F10005C1F972F0310FF30F007F009031CF10747
:100F2000F109031CF207F209031CF307F309700827
:100F3000F4007108F5007208F6007308F7007808ED
:100F4000F0007908F1007A08F2007B08F300DC1F5A
:100F5000F12F0310FF30F007F009031CF107F1092E
:100F6000031CF207F209031CF307F309F12F000831
:100F7000F000840A0008F100840A0008F200840AE4
:100F80000008F3003C2F84017008F8007108F90094
:100F90007208FA007308FB00F201F301F001F1019D
:100FA0000310FB0CFA0CF90CF80C031CE52F740869
:100FB000F00775080318750FF10776080318760F08
:100FC000F20777080318770FF307780879047A0493
:100FD0007B040319F12F0310F40DF50DF60DF70D39
:100FE000D02F84080319003473088000840372082A
:100FF000800084037108800084037008800000343E
:101B8E0083010800F0000030711870070310F00D8B
:101B9E000310F10CF10803190800CB2D8312031367
:101BAE000812A9002908803E0A128A15AD260A12CB
:101BBE008A150313831208008312031308121C30B4
:101BCE000A128A15AD260A128A1502300A128A15D1
:101BDE003D260A128A15031383120800831203137B
:101BEE00081214300A128A15AD260A128A1502300E
:021BFE000A12C9
:101C00008A153D260A128A150313831208008312CF
:101C1000031308128F300A128A15AD260A128A158C
:101C200002300A128A153D260A128A1503138312FE
:101C3000080083120313081201300A128A15AD2618
:101C40000A128A1514300A128A153D260A128A15BC
:101C500003138312080083120313081218300A12A8
:101C60008A15AD260A128A1502300A128A153D26F7
:101C70000A128A1503138312080083120313C20089
:101C8000043083120313C100FA3083120313C3001C
:101C90004A2E4A2E83120313C30B4F2E502E492E69
:101CA00083120313C10B552E562E442E8312031399
:101CB000C20B5B2E5C2E402E0313831208002930CA
:101CC00083120313C2000030C3002908BE002A0893
:101CD000BF002B08C0003E30C1002C300A128A1110
:101CE000D6210A128A152C30C1008030C2000A1297
:101CF0008A1585260A128A1514300A128A153D267D
:101D00000A128A150313831208008312031308169C
:101D10009B2E831203134208E0004108C10A0319F5
:101D2000C20A0A128A1113200A128A150A128A1587
:101D3000AD260A128A15831203134208E0004108F7
:101D40000A128A1113200A128A150038031DA92EBF
:101D5000AA2E892E03138312080083120313C300D3
:101D6000430E0F39F0000808F03970048800881617
:101D70006430C400BC2EBC2E83120313C40BC12ECE
:101D8000C22EBB2E8312031388126430C400C92EE6
:101D9000C92E83120313C40BCE2ECF2EC82E83124E
:101DA000031343080F39F0000808F0397004880065
:101DB00088166430C400DD2EDD2E83120313C40B9D
:101DC000E22EE32EDC2E8312031388126430C4004B
:101DD000EA2EEA2E83120313C40BEF2EF02EE92E07
:101DE000FA3083120313C400F62EF62E8312031367
:101DF000C40BFB2EFC2EF52E031383120800831256
:101E000003130816A700270E0F39F0000808F03951
:101E10007004880088166430A8000F2F0F2F8312DB
:101E20000313A80B142F152F0E2F831203138812E0
:101E30006430A8001C2F1C2F83120313A80B212F22
:101E4000222F1B2F8312031327080F39F0000808D5
:101E5000F0397004880088166430A800302F302FC5
:101E600083120313A80B352F362F2F2F8312031342
:101E700088126430A8003D2F3D2F83120313A80B56
:101E8000422F432F3C2FFA3083120313A800492F0F
:101E9000492F83120313A80B4E2F4F2F482F0313E4
:101EA000831208008312031308120F300A128A15D6
:101EB0003D260A128A150330880088166430A9006E
:101EC000622F622F83120313A90B672F682F612FD4
:101ED0008312031388126430A9006F2F6F2F8312AF
:101EE0000313A90B742F752F6E2F05300A128A1554
:101EF0003D260A128A1588166430A900802F802F8B
:101F000083120313A90B852F862F7F2F83120313B0
:101F100088126430A9008D2F8D2F83120313A90B13
:101F2000922F932F8C2F643083120313A900992FC3
:101F3000992F83120313A90B9E2F9F2F982F831283
:101F4000031388166430A900A62FA62F831203134B
:101F5000A90BAB2FAC2FA52F83120313881264306B
:101F6000A900B32FB32F83120313A90BB82FB92FD6
:101F7000B22F05300A128A153D260A128A15023040
:101F8000880088166430A900C62FC62F8312031359
:101F9000A90BCB2FCC2FC52F8312031388126430CB
:101FA000A900D32FD32F83120313A90BD82FD92F16
:101FB000D22F283083120313A900DF2FDF2F8312C3
:101FC0000313A90BE42FE52FDE2F28300A128A1500
:101FD000AD260A128A1508300A128A15AD260A1291
:101FE0008A150C300A128A15AD260A128A15063097
:101FF0000A128A15AD260A128A15031383120800E5
:00000001FF
