:10000000830100308A00042883010A128A11EF2E2E
:100D8000831603138601881308138812081288112A
:100D900008158814081483128601031383120800AF
:100DA00083120313A001A101FD302102E8300319D1
:100DB0002002031CDC2EDD2EDE2EEC2E831203130C
:100DC000A00A0319A10AFD302102E830031920020C
:100DD000031CEB2EEC2EDE2E0313831208000A12E6
:100DE0008A11C0260A128A11FC2F83120313881558
:100DF0008817081CFC2EFD2E002F0C308600112FAA
:100E000083120313881C052F062F092FB630860086
:100E1000112F83120313081D0E2F0F2F112F9E3039
:100E20008600831203138813881108168817081C7C
:100E30001A2F1B2F1E2FCC3086002F2F8312031347
:100E4000881C232F242F272FDA3086002F2F831280
:100E50000313081D2C2F2D2F2F2FFA3086008312FD
:100E600003138813081288168817081C382F392F87
:100E70003C2F4E3086004D2F83120313881C412FC8
:100E8000422F452FFF3086004D2F83120313081D7C
:100E90004A2F4B2F4D2FDE30860083120313881309
:100EA00088120817081C552F562F9D2F7F3086005B
:100EB0000A128A11D0260A128A11DE3086000A121E
:100EC0008A11D0260A128A11FF3086000A128A116E
:100ED000D0260A128A114E3086000A128A11D026B4
:100EE0000A128A11FA3086000A128A11D0260A12D2
:100EF0008A11DA3086000A128A11D0260A128A1163
:100F0000CC3086000A128A11D0260A128A119E302D
:100F100086000A128A11D0260A128A11B63086007B
:100F20000A128A11D0260A128A110C3086000A127F
:100F30008A11D0260A128A11F82F83120313881CF3
:100F4000A22FA32FA62F7F308600F82F8312031322
:100F5000081DAB2FAC2FF82F86010A128A11D0265C
:100F60000A128A110C3086000A128A11D0260A123F
:100F70008A11B63086000A128A11D0260A128A1106
:100F80009E3086000A128A11D0260A128A11CC30AD
:100F900086000A128A11D0260A128A11DA308600D7
:100FA0000A128A11D0260A128A11FA3086000A1211
:100FB0008A11D0260A128A114E3086000A128A112E
:100FC000D0260A128A11FF3086000A128A11D02612
:100FD0000A128A11DE3086000A128A11D0260A12FD
:100FE0008A117F3086000A128A11D0260A128A11CD
:100FF0008312031388130813F52E0A128A1104288A
:00000001FF
