:10000000830100308A001F28F00003088301A1004B
:100010000A08A2008A018B13831203138C1E112875
:10002000122815288C121A08A0008B1703138312AC
:1000300022088A0021088300F00E700E090020308B
:10004000840021302A2083010A128A11852F040698
:0C0050008001840A0406031D27280034E8
:100F0A00831603138801831288018130831699009E
:100F1A00181518128312181698178C1283168C1625
:100F2A008B170B17FC2F831203132008313A031D6A
:100F3A009F2FA02FA22F0C308800831203132008A2
:100F4A00323A031DA92FAA2FAC2FB630880083127C
:100F5A0003132008333A031DB32FB42FB62F9E3044
:100F6A008800831203132008343A031DBD2FBE2FB5
:100F7A00C02FCC308800831203132008353A031D92
:100F8A00C72FC82FCA2FDA3088008312031320080C
:100F9A00363A031DD12FD22FD42FFA30880083126C
:100FAA0003132008373A031DDB2FDC2FDE2F4E30C8
:100FBA008800831203132008383A031DE52FE62F11
:100FCA00E82FFF308800831203132008393A031DE3
:100FDA00EF2FF02FF22FDE30880083120313200840
:100FEA00303A031DF92FFA2FFC2F7F308800982FF3
:060FFA000A128A111F28F3
:00000001FF
