:10000000830100308A000428203084005D300F20F6
:1000100083010A128A11272904068001840A040632
:10002000031D0C28003483120313E000E11B212878
:10003000611B292861088A006008E00A0319E10AA7
:1000400082008313611883176008E00A84000008A7
:1000500008002E342E343A343A3420344D344134AE
:1000600053345434453452342034503449344334B6
:1000700020343A342E342E340034253430342E34A7
:10008000333466340034253464340034830108008A
:1000900083160313940122308312940003138312F6
:1000A00008008312031308166728831203134308FA
:1000B000E1004208C20A0319C30A0A128A11132076
:1000C0000A128A110A128A15FD260A128A1183124F
:1000D00003134308E10042080A128A1113200A128E
:1000E0008A110038031D75287628552803138312BA
:1000F00008008312031308120F300A128A15912682
:100100000A128A110330880088166430AA008928F0
:10011000892883120313AA0B8E288F28882883121C
:10012000031388126430AA009628962883120313BA
:10013000AA0B9B289C28952805300A128A1591261F
:100140000A128A1188166430AA00A728A7288312E9
:100150000313AA0BAC28AD28A62883120313881218
:100160006430AA00B428B42883120313AA0BB92858
:10017000BA28B328643083120313AA00C028C02809
:1001800083120313AA0BC528C628BF2883120313A2
:1001900088166430AA00CD28CD2883120313AA0B39
:1001A000D228D328CC288312031388126430AA00E3
:1001B000DA28DA2883120313AA0BDF28E028D928CB
:1001C00005300A128A1591260A128A110230880017
:1001D00088166430AA00ED28ED2883120313AA0BB9
:1001E000F228F328EC288312031388126430AA0043
:1001F000FA28FA2883120313AA0BFF280029F928EA
:10020000283083120313AA00062906298312031338
:10021000AA0B0B290C29052928300A128A15FD265C
:100220000A128A1108300A128A15FD260A128A114A
:100230000C300A128A15FD260A128A1106300A129B
:100240008A15FD260A128A11031383120800FF3053
:1002500083160313850087018801831288018316A2
:100260000716813083129F0083169F010A128A119C
:1002700048200A128A110A128A1179200A128A1158
:1002800014300A128A1591260A128A1100300A12B5
:100290008A1529260A128A1114300A128A15912603
:1002A0000A128A110A128A1537260A128A11143084
:1002B0000A128A1591260A128A112930C2000030CA
:1002C000C3000A128A1151200A128A1110300A1230
:1002D0008A1591260A128A110A128A1537260A12DD
:1002E0008A11D22983120313A201A3017C2983124C
:1002F0000313A20A0319A30A831203132308803AE3
:10030000F00080307002FA3003192202031C8929A0
:100310008A297729831203131F158E298312031349
:100320001F19932994298E29831203131E08A000F4
:10033000200893009B2983160313141CA029A129CC
:100340009B29831203132008F0000A128A117C25CE
:100350000A128A11A130F300A030F4003C30F500FD
:100360000A128A114A260A128A117008A40071081A
:10037000A5007208A60000300A128A1529260A1262
:100380008A112408AA002508AB002608AC000A122E
:100390008A15D7260A128A1101300A128A15912667
:1003A0000A128A1172290A128A1104288301CC00C8
:1003B000C8014208C6004F2D4B08253A031D402DA9
:1003C000FF30CA00C901C701FC2CCC080319EC2975
:1003D0004C08840083138001480808000230C607D7
:1003E00046028400831300083E2DC717FC2CC70A61
:1003F000FD290830CA07FE30CA07C71F0F2A04307C
:10040000C6074602840083130008F000840A00082F
:10041000F100840A0008F200840A00081F2A023052
:10042000C6074602840083130008F000840A00080F
:10043000F100700871080030F11BFF30F200F3008A
:100440007008D5007108D6007208D7007308D8006C
:10045000471C492AD81F582A5508F0005608F100B1
:100460005708F2005808F300F009F109F209F309FE
:10047000F00A0319F10A0319F20A0319F30A7008C2
:10048000D5007108D6007208D7007308D800C903D8
:10049000592AC71B582A5608F1005508F000F201E6
:1004A000F301D5007108D6007208D7007308D80090
:1004B000C7010B30CA074A08F400F501F601F7013D
:1004C0005508F0005608F1005708F2005808F300EC
:1004D0000A128A113B277408CB004A08F400F50180
:1004E000F601F7015530840083130A128A11B727E9
:1004F0000A128A1183120313D901D90ADA01DB0126
:10050000DC015C085802031D8F2A5B085702031D9B
:100510008F2A5A085602031D8F2A59085502031CB8
:10052000BD2A4A08F400F501F601F70159308400AC
:1005300083130A128A11C1260A128A118312031325
:10054000C903812AC80ACC080319B32A4C088400BD
:1005500083134719AD2A2030AE2A30308000831231
:100560000313CC0ABD2A4719B72A2030B82A3030E5
:100570000A128A1146200A128A11C9034908803AD0
:100580007F3E0318A22A471CD22AC80ACC080319A6
:10059000CE2A4C08840083132D30152B2D300A12DF
:1005A0008A1146204A08F400F501F601F701593096
:1005B000840083130A128A11B7270A128A1173085A
:1005C00072047104700403191B2B8312031359085E
:1005D000F4005A08F5005B08F6005C08F7005508BF
:1005E000F0005608F1005708F2005808F3000A120C
:1005F0008A113B274A08F400F501F601F7010A12B7
:100600008A113B270A128A117408C900803A763E83
:10061000031C0C2B0730C907C80ACC080319182B78
:100620004C08840083134908303E8000CC0AD22A4B
:100630004908303ECF2A0A30831203134B02031CB1
:10064000232B0730CB07C80ACC0803192F2B4C08E3
:10065000840083134B08303E8000CC0A362B4B08B5
:10066000303E0A128A1146200A128A11C71C4F2DE9
:10067000C80ACC080319432B4C08840083132E307E
:100680008000CC0A492B2E300A128A1146200A1209
:100690008A114D08D5004E08D6004F08D7005008E3
:1006A000D8000430C7004508C900422C0330C607F3
:1006B0004602840083130008D900840A0008DA0087
:1006C000840A0008DB0007304A02031C692B06304D
:1006D000CA004A08C500C701F301F401F501590831
:1006E000F0005A08F1005B08F2000A128A11222673
:1006F0000A128A110318902BC701C70A5908F00083
:100700005A08F1005B08F2000A128A1125270A1222
:100710008A117008D9007108DA007208DB00C90379
:10072000C508031DAE2B5908F3005A08F4005B08F6
:10073000F500F001F1013F30F2000A128A11F325B1
:100740000A128A118B260A128A117008D5007108C4
:10075000D6007208D7007308D800422C450AC90297
:100760005908F0005A08F1005B08F2000A128A11D9
:100770008B267008D5007108D6007208D700730860
:10078000D8005508F0005608F1005708F200580844
:10079000F3000A128A11B3267008F3007108F400FE
:1007A0007208F5005930840083130A128A11CE258D
:1007B00083120313C714D101D10AD201D301D4018A
:1007C000F3012030F4004130F500593084008313E8
:1007D0000A128A1141260A30F400F501F601F701E8
:1007E000831203135130840083130A128A11C12625
:1007F0000A128A1183120313CA0BE02BF301F401CE
:100800003F30F5005930840083130A128A11D02535
:10081000831203135908F0005A08F1005B08F20034
:100820000A128A118B260A128A117008CD007108EB
:10083000CE007208CF007308D00054085002031D88
:100840002B2C53084F02031D2B2C52084E02031D64
:100850002B2C51084D02031C422C5108CD0252088A
:10086000031C520FCE025308031C530FCF0254082F
:10087000031C540AD002D50A0319D60A0319D70A51
:100880000319D80A0A30CA005B2AC80ACC0803191F
:10089000502C4C088400831320308000CC0A562C46
:1008A00020300A128A1146200A128A11C903490807
:1008B000803A7E3E0318452C0230C607460284006B
:1008C00083130008CB00402D0230C6074602840087
:1008D00083130008D900840A0008DA00CB014B0812
:1008E0005907E0005A08E10060080318E10A0A12FB
:1008F0008A1113200A128A1100380319812CCB0A9D
:100900006F2C4A084B020318872C4B08CA004A0870
:10091000C91BBE2CFF3A4907031CBE2CC80ACC08D1
:100920000319992C4C088400831320308000CC0AD2
:100930009F2C20300A128A1146200A128A11C903FC
:10094000872C5A08E10059080A128A1113200A124A
:100950008A11CB00D90A0319DA0AC80ACC0803198C
:10096000B82C4C08840083134B088000CC0ABE2CA2
:100970004B080A128A1146200A128A11CA034A0F2A
:10098000A12C4F2D4408E10043080A128A111320BC
:100990000A128A112A3A031DD42C0230C6074602D5
:1009A000840083130008F82C4408E10043080A126D
:1009B0008A111320D03ECA00C30A0319C40A44088E
:1009C000E10043080A128A1113200A128A11CB008F
:1009D00030304B02031CFC2C3A304B020318FC2C29
:1009E0000A30F1004A080A128A151D264B07D03E2C
:1009F000CA00C30A0319C40A4408E1004308C30A31
:100A00000319C40A0A128A1113200A128A11CB0090
:100A1000003A0319E5292A3A0319EE29043A031981
:100A2000C22C763A0319F9293B3A0319572C073A95
:100A30000319F729023A0319562B0A3A0319F52923
:100A4000033A0319FB291C3A0319642C063A0319CB
:100A5000FD290D3A0319F92930304B02031C402DB2
:100A60003A304B020318402D0A30F10049080A12AF
:100A70008A151D260A128A114B07D03EC900FC2C8C
:100A8000C80ACC0803194B2D4C08840083134B086B
:100A90008000CC0A4F2D4B080A128A1146204408C8
:100AA000E1004308C30A0319C40A0A128A11132079
:100AB0000A128A11CB00CB08031DDC29CC080319CC
:100AC000652D4C08840083138001480808008408C1
:100AD00003190034720880008403710880008403C5
:100AE000700880000034F101F201F301F01FB32E11
:100AF000F103F203F303AE2EF101F201F301B32E81
:100B0000F801710D720DF600760803198B2DF80DA2
:100B1000F201F1170800F001F101F2010034F810C0
:100B2000740D750DF700770803199B2D0318F81441
:100B3000F501F4170800F701F301F401F5010800CD
:100B4000760803198B2DF113F80C760CF2000318BC
:100B5000F117672DF608031DBE2DF001F101F2011A
:100B6000672D72030319F00A0319F10A0319F20A37
:100B70000310F20CF10CF00CF60AAA2DF208031D7A
:100B8000B12D700871040319AD2DF11BA02DF603D2
:100B90000319AD2D0310F00DF10DC52D8030F506B4
:100BA0000008F000840A0008F100840A0008F2003E
:100BB000F42D76087702031CE82D031908000310B2
:100BC000F20CF10CF00CF60A76087702DD2D03101A
:100BD000F50CF40CF30CF70A7608770603190800F5
:100BE000E72D8030F506840180258F25D925781CD6
:100BF000012EF009F109F209F00A0319F10A0319AB
:100C0000F20AF81C0B2EF309F409F509F30A03198B
:100C1000F40A0319F50A7308F00774080318740F2F
:100C2000F10775080318750FF207F801F21FAA2DD6
:100C3000F009F109F209F00A0319F10A0319F20A9D
:100C40007814AA2D72087506803903192B2E750D9C
:100C5000750801380800F21375087F397202031D08
:100C6000392E74087102031D392E7308700203199E
:100C7000080003080238F51B013A83000318803886
:100C800008000008F000840A0008F100840A000847
:100C9000F2004B2E840180258F25F901FA01FB011A
:100CA0000730F5000310F40CF30C031C622E7008DF
:100CB000F90771080318710FFA0772080318720F09
:100CC000FB070310F00DF10DF20DF50B522E09305C
:100CD000F5006E2E0310FB0CFA0CF90C0310F40C4B
:100CE000F30C031C7D2E7008F90771080318710FAF
:100CF000FA0772080318720FFB07F50B6A2E7A3099
:100D00007707F607780CF8067908F0007A08F10002
:100D10007B08F200AA2D84018025F3018230F607BA
:100D2000F61B8B2DF030F607F61BA72E1830760237
:100D300003188B2DF608031DA02E78182D27080008
:100D4000F6030310F00DF10DF20DF30D9A2E0310C2
:100D5000F20CF10CF00CF60FA72E9D2EF31FB32E04
:100D600078142D27B42EF8018E30F6008401F30894
:100D70000319AA2D0310F30CF20CF10CF00CF60A77
:100D8000B72E0008F000840A0008F100840A000869
:100D9000F200840A0008F300C42F8301DF01720D02
:100DA000730DDD005D080319D92EDF0DF301F21775
:100DB0000800F001F101F201F3010034DF10760DBB
:100DC000770DDE005E080319EA2E0318DF14F70121
:100DD000F6170800DE01F401F501F601F70108003D
:100DE0005D080319D92EF213DF0C5D0CF300031814
:100DF000F217F12FDD080319202F73080319102FA4
:100E000073030319F00A0319F10A0319F20A03190B
:100E1000F30A0310F30CF20CF10CF00CDD0AFA2EBD
:100E200070087104720473040319202FF21BF02E52
:100E3000DD030319202F0310F00DF10DF20D162F15
:100E4000F001F101F201F301F12F710D720D003883
:100E5000031908008030F20608000310FF30F00785
:100E6000F009031CF107F109031CF207F209031C46
:100E7000F307F3090800840183120313DD01F8016D
:100E8000F901FA01FB01740875047604770403196B
:100E90004C2FC030DD05572FF001F101F201F301B5
:100EA000F12F0310F40DF50DF60DF70DDD0AF71F08
:100EB000512FDD0A0310F80DF90DFA0DFB0D77081F
:100EC0007302031D6D2F76087202031D6D2F7508C6
:100ED0007102031D6D2F74087002031C7F2F78149C
:100EE0007408F0027508031C750FF1027608031CE4
:100EF000760FF2027708031C770FF3020310F70C4A
:100F0000F60CF50CF40CDD035D083F39031D5A2F78
:100F10005D1F972F0310FF30F007F009031CF10746
:100F2000F109031CF207F209031CF307F309700827
:100F3000F4007108F5007208F6007308F7007808ED
:100F4000F0007908F1007A08F2007B08F300DD1F59
:100F5000F12F0310FF30F007F009031CF107F1092E
:100F6000031CF207F209031CF307F309F12F000831
:100F7000F000840A0008F100840A0008F200840AE4
:100F80000008F3003C2F84017008F8007108F90094
:100F90007208FA007308FB00F201F301F001F1019D
:100FA0000310FB0CFA0CF90CF80C031CE52F740869
:100FB000F00775080318750FF10776080318760F08
:100FC000F20777080318770FF307780879047A0493
:100FD0007B040319F12F0310F40DF50DF60DF70D39
:100FE000D02F84080319003473088000840372082A
:100FF000800084037108800084037008800000343E
:101C3A00F0000030711870070310F00D0310F10C5A
:101C4A00F108031908001F2E831203130812AA00B1
:101C5A002A08803E0A128A15FD260A128A150313DB
:101C6A008312080083120313081201300A128A151C
:101C7A00FD260A128A1514300A128A1591260A12AA
:101C8A008A150313831208008312031308121830EB
:101C9A000A128A15FD260A128A1502300A128A15B4
:101CAA0091260A128A15031383120800831203135A
:101CBA0008128F300A128A15FD260A128A15023076
:101CCA000A128A1591260A128A150313831208002A
:101CDA008312031308121C300A128A15FD260A12EF
:101CEA008A1502300A128A1591260A128A150313D6
:101CFA008312080083120313081214300A128A1579
:101D0A00FD260A128A1502300A128A1591260A122B
:101D1A008A1503138312080083120313C3000430C5
:101D2A0083120313C200FA3083120313C4009E2ED7
:101D3A009E2E83120313C40BA32EA42E9D2E831250
:101D4A000313C20BA92EAA2E982E83120313C30BB8
:101D5A00AF2EB02E942E0313831208004330831241
:101D6A000313C3000030C4002A08B0002B08B100D6
:101D7A003030C2002A300A128A11D6210A128A1574
:101D8A002A30C2008030C3000A128A1151200A1276
:101D9A008A1514300A128A1591260A128A15031313
:101DAA00831208003D3083120313C3000030C400BD
:101DBA002A08BF002B08C0002C08C1003F30C2000F
:101DCA002D300A128A11D6210A128A152D30C20024
:101DDA008030C3000A128A1151200A128A1514305F
:101DEA000A128A1591260A128A1503138312080009
:101DFA0083120313C400440E0F39F0000808F039A7
:101E0A007004880088166430C5000C2F0C2F8312CA
:101E1A000313C50B112F122F0B2F831203138812D2
:101E2A006430C500192F192F83120313C50B1E2FF7
:101E3A001F2F182F8312031344080F39F0000808C4
:101E4A00F0397004880088166430C5002D2F2D2FB4
:101E5A0083120313C50B322F332F2C2F8312031334
:101E6A0088126430C5003A2F3A2F83120313C50B28
:101E7A003F2F402F392FFA3083120313C500462F04
:101E8A00462F83120313C50B4B2F4C2F452F0313D9
:101E9A0083120800831203130816AA002A0E0F39A8
:101EAA00F0000808F0397004880088166430AB0026
:101EBA005F2F5F2F83120313AB0B642F652F5E2FE7
:101ECA008312031388126430AB006C2F6C2F8312B9
:101EDA000313AB0B712F722F6B2F831203132A0874
:101EEA000F39F0000808F039700488008816643049
:101EFA00AB00802F802F83120313AB0B852F862F05
:101F0A007F2F8312031388126430AB008D2F8D2F1D
:101F1A0083120313AB0B922F932F8C2FFA30831259
:101F2A000313AB00992F992F83120313AB0B9E2F28
:101F3A009F2F982F03138312080083120313AB01F8
:101F4A000A128A155B260A128A1514300A128A1591
:101F5A0091260A128A150816C52F831203132B0815
:101F6A00E1002A08AA0A0319AB0A0A128A111320E5
:101F7A000A128A150A128A15FD260A128A15AB0A4E
:101F8A00831203132B08E1002A080A128A1113206C
:101F9A000A128A150038031DD32FD42FB22F8312A9
:101FAA000313AA01E42F0A128A156D260A128A154A
:101FBA0064300A128A1591260A128A15AA0A83120D
:101FCA0003132B08F200F3010310F20DF30D2A0894
:101FDA00F000F1017108803AF4007308803A740243
:101FEA00031DF92F72087002031CFC2FFD2FD82F36
:061FFA000313831208002E
:00000001FF
