:10000000830100308A0004282030840059300F20FA
:1000100083010A128A11F22804068001840A040668
:10002000031D0C28003483120313DC00DD1B212880
:100030005D1B29285D088A005C08DC0A0319DD0ABB
:10004000820083135D1883175C08DC0A84000008B3
:100050000800253430342E343234663400342034F1
:1000600044344334203456346F346C3474340034A4
:100070004434493447344934543441344C342034C2
:1000800056344F344C34543420344D344534543485
:1000900045345234003452346534733475346C341E
:1000A0007434203420342034203420343D3400345F
:1000B2008F300A128A150F270A128A117D2883129D
:1000C20003132708DD002608A60A0319A70A0A1245
:1000D2008A1113200A128A110A128A151C270A127F
:1000E2008A111C300A128A150F270A128A110A1263
:1000F2008A15B6270A128A11831203132708DD0014
:1001020026080A128A1113200A128A110038031DC6
:100112008B288C2860280A128A15B6270A128A119F
:1001220001300A128A150F270A128A110313831249
:1001320008006430F2000030F30083120313250834
:10014200F1002408F0000A128A1172260A128A119A
:1001520074083038A4006430F2000030F30025083F
:10016200F1002408F0000A128A1172260A128A117A
:100172007008A4007108A5000A30F2000030F300F4
:100182002508F1002408F0000A128A1172260A12C8
:100192008A1174083038A5000A30F2000030F300EA
:1001A2002508F1002408F0000A128A1172260A12A8
:1001B2008A1170083038A60024080A128A151C27F2
:1001C2000A128A1125080A128A151C270A128A1194
:1001D20026080A128A151C270A128A11031383128F
:1001E2000800FF30831603138500813083129F00BD
:1001F20083169F010A128A15EF260A128A110A1221
:100202008A1545270A128A110A128A1537270A12F5
:100212008A1180300A128A150F270A128A11383081
:10022200A6000030A7000A128A1159200A128A1168
:100232004B30BE000030BF000A128A15DB270A12BB
:100242008A11832983120313A401A5012508803A88
:10025200F00080307002FA3003192402031C3229A4
:1002620033293429452983120313A40A0319A50A41
:100272002508803AF00080307002FA300319240217
:10028200031C442945293429831203131F154929C4
:10029200831203131F194E294F294929C0300A120C
:1002A2008A150F270A128A111E08A0002008F000E2
:1002B2000A128A112D250A128A11A130F300A030E8
:1002C200F4003C30F5000A128A11FB250A128A1149
:1002D2007008A1007108A2007208A3002108A600FC
:1002E2002208A7002308A8000A128A1596270A12D4
:1002F2008A112F30BE000030BF000A128A15DB2798
:100302000A128A1123290A128A1104288301C800B9
:10031200C4013E08C200002D4708253A031DF12CF6
:10032200FF30C600C501C301AD2CC80803199D29C1
:100332004808840083138001440808000230C20781
:100342004202840083130008EF2CC317AD2CC30AAA
:10035200AE290830C607FE30C607C31FC0290430C5
:10036200C2074202840083130008F000840A0008D6
:10037200F100840A0008F200840A0008D029023041
:10038200C2074202840083130008F000840A0008B6
:10039200F100700871080030F11BFF30F200F30029
:1003A2007008D1007108D2007208D3007308D4001B
:1003B200431CFA29D41F092A5108F0005208F100FF
:1003C2005308F2005408F300F009F109F209F309A5
:1003D200F00A0319F10A0319F20A0319F30A700861
:1003E200D1007108D2007208D3007308D400C5038B
:0E03F2000A2AC31B092A5208F1005108F00024
:10040000F201F301D1007108D2007208D300730821
:10041000D400C3010B30C6074608F400F501F6010D
:10042000F7015108F0005208F1005308F200540897
:10043000F3000A128A113B277408C7004608F4002B
:10044000F501F601F7015130840083130A128A1175
:10045000B7270A128A1183120313D501D50AD601D0
:10046000D701D80158085402031D402A57085302E7
:10047000031D402A56085202031D402A5508510206
:10048000031C6E2A4608F400F501F601F701553009
:10049000840083130A128A11C1260A128A11831258
:1004A0000313C503322AC40AC8080319642A48087A
:1004B0008400831343195E2A20305F2A3030800085
:1004C00083120313C80A6E2A4319682A2030692A46
:1004D00030300A128A15ED260A128A11C503450822
:1004E000803A7F3E0318532A431C832AC40AC80853
:1004F00003197F2A4808840083132D30C62A2D3023
:100500000A128A15ED264608F400F501F601F701F6
:100510005530840083130A128A11B7270A128A11F0
:1005200073087204710470040319CC2A8312031334
:100530005508F4005608F5005708F6005808F7006B
:100540005108F0005208F1005308F2005408F3007B
:100550000A128A113B274608F400F501F601F7015B
:100560000A128A113B270A128A117408C500803AC0
:10057000763E031CBD2A0730C507C40AC808031904
:10058000C92A4808840083134508303E8000C80A01
:10059000832A4508303E802A0A308312031347021B
:1005A000031CD42A0730C707C40AC8080319E02A65
:1005B0004808840083134708303E8000C80AE72AB1
:1005C0004708303E0A128A15ED260A128A11C31C0A
:1005D000002DC40AC8080319F42A480884008313AC
:1005E0002E308000C80AFA2A2E300A128A15ED260B
:1005F0000A128A114908D1004A08D2004B08D300D8
:100600004C08D4000430C3004108C500F32B03306C
:10061000C2074202840083130008D500840A000840
:10062000D600840A0008D70007304602031C1A2BA4
:100630000630C6004608C100C301F301F401F5010C
:100640005508F0005608F1005708F2000A128A1106
:10065000D3250A128A110318412BC301C30A550876
:10066000F0005608F1005708F2000A128A112527F7
:100670000A128A117008D5007108D6007208D700D6
:10068000C503C108031D5F2B5508F3005608F4008D
:100690005708F500F001F1013F30F2000A128A110B
:1006A000A4250A128A113C260A128A117008D10068
:1006B0007108D2007208D3007308D400F32B410AEA
:1006C000C5025508F0005608F1005708F2000A125A
:1006D0008A113C267008D1007108D2007208D3003C
:1006E0007308D4005108F0005208F1005308F200DA
:1006F0005408F3000A128A1164267008F300710886
:10070000F4007208F5005530840083130A128A1130
:100710007F2583120313C314CD01CD0ACE01CF016F
:10072000D001F3012030F4004130F5005530840051
:1007300083130A128A11F2250A30F400F501F6013A
:10074000F701831203134D30840083130A128A11B8
:10075000C1260A128A1183120313C60B912BF301CF
:10076000F4013F30F5005530840083130A128A11DA
:100770008125831203135508F0005608F10057082D
:10078000F2000A128A113C260A128A117008C90066
:100790007108CA007208CB007308CC0050084C02E4
:1007A000031DDC2B4F084B02031DDC2B4E084A02B5
:1007B000031DDC2B4D084902031CF32B4D08C90215
:1007C0004E08031C4E0FCA024F08031C4F0FCB02EA
:1007D0005008031C500ACC02D10A0319D20A03198B
:1007E000D30A0319D40A0A30C6000C2AC40AC8085E
:1007F0000319012C48088400831320308000C80AA4
:10080000072C20300A128A15ED260A128A11C50318
:100810004508803A7E3E0318F62B0230C20742029A
:10082000840083130008C700F12C0230C207420283
:10083000840083130008D500840A0008D600C7018D
:1008400047085507DC005608DD005C080318DD0A80
:100850000A128A1113200A128A1100380319322C45
:10086000C70A202C460847020318382C4708C60040
:100870004608C51B6F2CFF3A4507031C6F2CC40AA2
:10088000C80803194A2C48088400831320308000CC
:10089000C80A502C20300A128A15ED260A128A1135
:1008A000C503382C5608DD0055080A128A1113209A
:1008B0000A128A11C700D50A0319D60AC40AC80841
:1008C0000319692C48088400831347088000C80A6C
:1008D0006F2C47080A128A15ED260A128A11C603E0
:1008E000460F522C002D4008DD003F080A128A11E5
:1008F00013200A128A112A3A031D852C0230C207DE
:100900004202840083130008A92C4008DD003F0840
:100910000A128A111320D03EC600BF0A0319C00A6A
:100920004008DD003F080A128A1113200A128A11BA
:10093000C70030304702031CAD2C3A304702031881
:10094000AD2C0A30F10046080A128A15F626470730
:10095000D03EC600BF0A0319C00A4008DD003F08A8
:10096000BF0A0319C00A0A128A1113200A128A1137
:10097000C700003A031996292A3A03199F29043A15
:100980000319732C763A0319AA293B3A0319082C48
:10099000073A0319A829023A0319072B0A3A03193F
:1009A000A629033A0319AC291C3A0319152C063A57
:1009B0000319AE290D3A0319AA2930304702031C46
:1009C000F12C3A3047020318F12C0A30F1004508A7
:1009D0000A128A15F6260A128A114707D03EC50068
:1009E000AD2CC40AC8080319FC2C480884008313E2
:1009F00047088000C80A002D47080A128A15ED260C
:100A00004008DD003F08BF0A0319C00A0A128A1114
:100A100013200A128A11C700C708031D8D29C808B0
:100A20000319162D48088400831380014408080028
:100A30008408031900347208800084037108800060
:100A40008403700880000034F101F201F301F01F0B
:100A5000642EF103F203F3035F2EF101F201F301BF
:100A6000642EF801710D720DF600760803193C2D05
:100A7000F80DF201F1170800F001F101F201003464
:100A8000F810740D750DF700770803194C2D031835
:100A9000F814F501F4170800F701F301F401F5016A
:100AA0000800760803193C2DF113F80C760CF200BF
:100AB0000318F117182DF608031D6F2DF001F10131
:100AC000F201182D72030319F00A0319F10A031930
:100AD000F20A0310F20CF10CF00CF60A5B2DF2088E
:100AE000031D622D7008710403195E2DF11B512D39
:100AF000F60303195E2D0310F00DF10D762D8030F5
:100B0000F5060008F000840A0008F100840A0008D5
:100B1000F200A52D76087702031C992D0319080011
:100B20000310F20CF10CF00CF60A760877028E2D09
:100B30000310F50CF40CF30CF70A7608770603198A
:100B40000800982D8030F5068401312540258A253E
:100B5000781CB22DF009F109F209F00A0319F10A23
:100B60000319F20AF81CBC2DF309F409F509F30A7C
:100B70000319F40A0319F50A7308F0077408031837
:100B8000740FF10775080318750FF207F801F21FCB
:100B90005B2DF009F109F209F00A0319F10A0319B2
:100BA000F20A78145B2D7208750680390319DC2D62
:100BB000750D750801380800F21375087F39720247
:100BC000031DEA2D74087102031DEA2D73087002DB
:100BD0000319080003080238F51B013A83000318C3
:100BE000803808000008F000840A0008F100840A38
:100BF0000008F200FC2D840131254025F901FA019D
:100C0000FB010730F5000310F40CF30C031C132E4A
:100C10007008F90771080318710FFA0772080318B2
:100C2000720FFB070310F00DF10DF20DF50B032E03
:100C30000930F5001F2E0310FB0CFA0CF90C031001
:100C4000F40CF30C031C2E2E7008F907710803181E
:100C5000710FFA0772080318720FFB07F50B1B2EB2
:100C60007A307707F607780CF8067908F0007A08EA
:100C7000F1007B08F2005B2D84013125F301823005
:100C8000F607F61B3C2DF030F607F61B582E1830F1
:100C9000760203183C2DF608031D512E78182D27D7
:100CA0000800F6030310F00DF10DF20DF30D4B2EBD
:100CB0000310F20CF10CF00CF60F582E4E2EF31F11
:100CC000642E78142D27652EF8018E30F6008401ED
:100CD000F30803195B2D0310F30CF20CF10CF00C6C
:100CE000F60A682EF601F11F7C2EF009F00A0319AE
:100CF000F103F1097617F61773088039F606F31F2A
:100D0000882EF209F20A0319F303F309882EF6017B
:100D1000F401F50172087304031D912EF001F10135
:100D200000341F30F6040310F60AF20DF30D031C15
:100D3000942EF30CF20C73087102031DA12E72089D
:100D40007002031CA92E7208F0027308031C730AB8
:100D5000F102F40DF50DF60BF61A992EF61FB52ECD
:100D6000F409F40A0319F503F5097408F20075088B
:100D7000F300761F0034F009F00A0319F103F109BA
:100D800000340008F000840A0008F100840A00081A
:100D9000F200840A0008F300C42F8301DB01720D06
:100DA000730DD90059080319D92EDB0DF301F21781
:100DB0000800F001F101F201F3010034DB10760DBF
:100DC000770DDA005A080319EA2E0318DB14F7012D
:100DD000F6170800DA01F401F501F601F701080041
:100DE00059080319D92EF213DB0C590CF300031820
:100DF000F217F12FD9080319202F73080319102FA8
:100E000073030319F00A0319F10A0319F20A03190B
:100E1000F30A0310F30CF20CF10CF00CD90AFA2EC1
:100E200070087104720473040319202FF21BF02E52
:100E3000D9030319202F0310F00DF10DF20D162F19
:100E4000F001F101F201F301F12F710D720D003883
:100E5000031908008030F20608000310FF30F00785
:100E6000F009031CF107F109031CF207F209031C46
:100E7000F307F3090800840183120313D901F80171
:100E8000F901FA01FB01740875047604770403196B
:100E90004C2FC030D905572FF001F101F201F301B9
:100EA000F12F0310F40DF50DF60DF70DD90AF71F0C
:100EB000512FD90A0310F80DF90DFA0DFB0D770823
:100EC0007302031D6D2F76087202031D6D2F7508C6
:100ED0007102031D6D2F74087002031C7F2F78149C
:100EE0007408F0027508031C750FF1027608031CE4
:100EF000760FF2027708031C770FF3020310F70C4A
:100F0000F60CF50CF40CD90359083F39031D5A2F80
:100F1000591F972F0310FF30F007F009031CF1074A
:100F2000F109031CF207F209031CF307F309700827
:100F3000F4007108F5007208F6007308F7007808ED
:100F4000F0007908F1007A08F2007B08F300D91F5D
:100F5000F12F0310FF30F007F009031CF107F1092E
:100F6000031CF207F209031CF307F309F12F000831
:100F7000F000840A0008F100840A0008F200840AE4
:100F80000008F3003C2F84017008F8007108F90094
:100F90007208FA007308FB00F201F301F001F1019D
:100FA0000310FB0CFA0CF90CF80C031CE52F740869
:100FB000F00775080318750FF10776080318760F08
:100FC000F20777080318770FF307780879047A0493
:100FD0007B040319F12F0310F40DF50DF60DF70D39
:100FE000D02F84080319003473088000840372082A
:100FF000800084037108800084037008800000343E
:101DDA008301080083160313860187010313831204
:101DEA000800F0000030711870070310F00D03109E
:101DFA00F10CF10803190800F82E831203130711D6
:101E0A0007150A128A1577270A128A15071103136A
:101E1A00831208008312031386000710A8000A120F
:101E2A008A1502270A128A150313831208008312DD
:101E3A00031386000714C0000A128A1502270A1221
:101E4A008A15031383120800831203130710A400D0
:101E5A002408803E0A128A151C270A128A150313BF
:101E6A008312080001300A128A150F270A128A15EE
:101E7A000A128A1502270A128A1503138312080006
:101E8A0038300A128A150F270A128A150C300A12DC
:101E9A008A150F270A128A1501300A128A150F2786
:101EAA000A128A1503138312080083120313A4006B
:101EBA00240E0F39F0000808F0397004880007155D
:101ECA00071124080F39F0000808F0397004880057
:101EDA00071507110A128A1577270A128A1503139A
:101EEA008312080083120313C101C201EA304202BD
:101EFA00613003194102031C832F842F852F932FEE
:101F0A0083120313C10A0319C20AEA30420261307A
:101F1A0003194102031C922F932F852F0313831257
:101F2A000800293083120313BF000030C0002608BE
:101F3A00BB002708BC002808BD003B30BE00293082
:101F4A000A128A1187210A128A152930BE008030A6
:101F5A00BF000A128A15DB270A128A150313831295
:101F6A00080083120313A801A9012908803AF00086
:101F7A008F307002A13003192802031CC52FC62F07
:101F8A00C72FD82F83120313A80A0319A90A2908ED
:101F9A00803AF0008F307002A13003192802031C26
:101FAA00D72FD82FC72F031383120800EE2F8312BF
:101FBA0003133F08DD003E08BE0A0319BF0A0A12CE
:101FCA008A1113200A128A150A128A151C270A1264
:101FDA008A15831203133F08DD003E080A128A118C
:101FEA0013200A128A150038031DFC2FFD2FDC2F3F
:061FFA000313831208002E
:00000001FF
