:10000000830100308A0004282030840036300E201E
:1000100083018A11222C04068001840A0406031D30
:100020000B2800348312BD00BE1B1F283E1B27284F
:100030003E088A003D08BD0A0319BE0A82008313E8
:100040003E1883173D08BD0A8400000808002534C7
:1000500030342E3433346634003425346434003480
:10006000573465346C3463346F346D346534203404
:1000700054346F3420345434683465342034573465
:100080006F3472346C34643420344F34663420342A
:1000900045346C3465346334743472346F346E3484
:0800A000693463347334003449
:10064E0083010800831203130712A1002108803EC4
:10065E008A1198248A11031383120800831203133C
:10066E00071218308A1198248A1102308A11002438
:10067E008A11031383120800831203130712143016
:10068E008A1198248A1102308A1100248A110313C8
:10069E00831208008312031307121C308A11982448
:1006AE008A1102308A1100248A1103138312080062
:1006BE008312031307128F308A1198248A11023085
:1006CE008A1100248A110313831208008312031364
:1006DE00B6000030371836070310B60D0310B70CEE
:1006EE00B70803190800712B831203130712013088
:1006FE008A1198248A1114308A1100248A11031346
:10070E008312080083120313BA01BB010310B90C44
:10071E00B80C031C992B3608BA0737080318370A8A
:10072E00BB070310B60DB70D380839040319003492
:10073E008D2B2D3083120313A2000030A30021084D
:10074E00A7002208A8002730A10021308A11DD253C
:10075E008A112130A1008030A2008A11DE238A1175
:10076E0014308A1100248A110313831208002730D3
:10077E0083120313A2000030A3002108B300220845
:10078E00B4002308B5003330A10021308A11DD25D5
:10079E008A112130A1008030A2008A11DE238A1135
:1007AE0014308A1100248A11031383120800831255
:1007BE0003130716F02B831203132208BE00210821
:1007CE00A10A0319A20A8A1112208A118A119824E9
:1007DE008A11831203132208BE0021088A111220E7
:1007EE008A110038031DFC2BFD2BE22B0313831201
:0207FE000800F1
:1008000083120313A600043083120313A500FA30E9
:1008100083120313A7000D2C0D2C83120313A70BB7
:10082000122C132C0C2C83120313A50B182C192C2F
:10083000072C83120313A60B1E2C1F2C032C03134F
:10084000831208008316031387018A113D258A113C
:1008500014308A1100248A1100308A1129238A1148
:1008600014308A1100248A118A117B238A111430D2
:100870008A1100248A11452C303083120313A10001
:100880000030A2008A1148248A113C2C8A110428C5
:1008900083120313A4018A115F238A1114308A1171
:1008A00000248A110716632C831203132208BE004A
:1008B0002108A10A0319A20A8A1112208A118A1199
:1008C00098248A11A40A831203132208BE00210867
:1008D0008A1112208A110038031D6F2C702C542CA1
:1008E00083120313A3017C2C8A1151238A116430D3
:1008F0008A1100248A11A30A831203132408B80062
:10090000B9010310B80DB90D2308B600B7013708B7
:10091000803ABA003908803A3A02031D912C38080F
:100920003602031C942C952C742C0313831208009C
:1009300083120313A500250E0F39B6000708F039FE
:100940003604870087166430A600A72CA72C8312D4
:100950000313A60BAC2CAD2CA62C83120313871209
:100960006430A600B42CB42C83120313A60BB92C4C
:10097000BA2CB32C8312031325080F39B6000708CD
:10098000F0393604870087166430A600C82CC82CBE
:1009900083120313A60BCD2CCE2CC72C831203136A
:1009A00087126430A600D52CD52C83120313A60B16
:1009B000DA2CDB2CD42CFA3083120313A600E12CA2
:1009C000E12C83120313A60BE62CE72CE02C031377
:1009D00083120800831203130716A100210E0F399A
:1009E000B6000708F0393604870087166430A20085
:1009F000FA2CFA2C83120313A20BFF2C002DF92CD6
:100A00008312031387126430A200072D072D83126F
:100A10000313A20B0C2D0D2D062D83120313210899
:100A20000F39B6000708F03936048700871664309E
:100A3000A2001B2D1B2D83120313A20B202D212D91
:100A40001A2D8312031387126430A200282D282D3B
:100A500083120313A20B2D2D2E2D272DFA30831276
:100A60000313A200342D342D83120313A20B392D4E
:100A70003A2D332D03138312080083120313071238
:100A80000F308A1100248A110330870087166430E2
:100A9000A1004B2D4B2D83120313A10B502D512D73
:100AA0004A2D8312031387126430A100582D582D4C
:100AB00083120313A10B5D2D5E2D572D05308A1176
:100AC00000248A1187166430A100672D672D8312D8
:100AD0000313A10B6C2D6D2D662D8312031387124A
:100AE0006430A100742D742D83120313A10B792D92
:100AF0007A2D732D643083120313A100802D802D75
:100B000083120313A10B852D862D7F2D83120313D2
:100B100087166430A1008D2D8D2D83120313A10B38
:100B2000922D932D8C2D8312031387126430A10014
:100B30009A2D9A2D83120313A10B9F2DA02D992D71
:100B400005308A1100248A1102308700871664302C
:100B5000A100AB2DAB2D83120313A10BB02DB12D32
:100B6000AA2D8312031387126430A100B82DB82D6B
:100B700083120313A10BBD2DBE2DB72D2830831278
:100B80000313A100C42DC42D83120313A10BC92D7F
:100B9000CA2DC32D28308A1198248A1108308A1151
:100BA00098248A110C308A1198248A1106308A11EF
:100BB00098248A110313831208008301A700A5015A
:100BC0002108A200AE2F2608253A031DA02FFF30D2
:100BD000A300A401A101662FA7080319F32D27087C
:100BE000840083138001250808000230A207220236
:100BF0008400831300089E2FA10A022E0830A30749
:100C0000FE30A3070230A2072202840083130008EB
:100C1000A800840A0008A9002118A91F162EA809F7
:100C2000A909A80A0319A90AA403172EA1010B30C8
:100C3000A3072308B800B9012908B7002808B6009F
:100C40008A11C4273608A6002308B800B90128086D
:100C5000B6002908B7008A11C4278A113A08A800EB
:100C60003B08A900AA01AA0AAB012B082902031D0F
:100C70003B2E2A082802031C5C2E2308B800B90169
:100C80002A08B6002B08B7008A1189238A113A086E
:100C9000AA003B08AB00A403352EA50AA708031938
:100CA000582E27088400831320308000A70A5C2E6A
:100CB00020308A1127238A11A4032408803A7F3E1A
:100CC00003184D2E211C702EA50AA70803196D2E9E
:100CD0002708840083132D30A62E2D308A11272358
:100CE0002308B800B9012A08B6002B08B7008A11FA
:100CF000C4278A113A08AA003B08AB002A0403194A
:100D0000AC2E2B08B9002A08B8002908B70028081B
:100D1000B6008A11C4273A08B6003B08B70023087A
:100D2000B800B9018A11C4278A113608A400803A94
:100D3000763E031C9D2E0730A407A50AA7080319B9
:100D4000A92E2708840083132408303E8000A70AB8
:100D5000702E2408303E6E2E0A302602031CB22E5E
:100D60000730A607A50AA7080319BC2E2708840088
:100D700083132608303EA82F2608303EAC2FA50A44
:100D8000A7080319CA2E2708840083132030800087
:100D9000A70ACE2E20308A1127238A11A403240803
:100DA000803A7E3E0318BF2E0230A2072202840042
:100DB00083130008A600A02F0230A207220284009D
:100DC00083130008AA00840A0008AB00A6012608C5
:100DD0002A07BD002B08BE003D080318BE0A8A1171
:100DE00012208A1100380319F72EA60AE72E2308CD
:100DF00026020318FD2E2608A3002308A41B2E2F6D
:100E0000FF3A2407031C2E2FA50AA70803190F2F4A
:100E100027088400831320308000A70A132F203076
:100E20008A1127238A11A403FD2E2B08BE002A084D
:100E30008A1112208A11A600AA0A0319AB0AA50A70
:100E4000A70803192A2F2708840083132608800087
:100E5000A70A2E2F26088A1127238A11A303230FFE
:100E6000152FAE2F2308BE0022088A1112208A11E6
:100E70002A3A031D422F0230A20722028400831364
:100E80000008622F2308BE0022088A111220D03EDB
:100E9000A300A20A0319A30A2308BE0022088A118C
:100EA00012208A11A60030302602031C662F3A3029
:100EB00026020318662F0A30B70023088A116D2313
:100EC0002607D03EA300A20A0319A30A2308BE00E6
:100ED0002208A20A0319A30A8A1112208A11A60065
:100EE000003A0319EC2D2A3A0319F52D043A031997
:100EF000322F763A0319FE2D3B3A0319CF2E073ACB
:100F00000319FC2D0B3A0319002E1C3A0319DC2E91
:100F1000063A0319022E0D3A0319FE2D303026022F
:100F2000031CA02F3A3026020318A02F0A30B70066
:100F300024088A116D238A112607D03EA400662F4B
:100F4000A50AA7080319AB2F2708840083132608D6
:100F50008000A70AAE2F26088A1127232308BE0087
:100F60002208A20A0319A30A8A1112208A11A600D4
:100F7000A608031DE32DA7080319C22F2708840024
:100F8000831380012508080083120313BC01BA01F2
:100F9000BB0138083904031DD02FB601B701003456
:100FA0001F30BC040310BC0AB80DB90D031CD32FAD
:100FB000B90CB80C39083702031DE02F3808360287
:100FC000031CE82F3808B6023908031C390AB70297
:100FD000BA0DBB0DBC0BBC1AD82FBC1FF42FBA091D
:100FE000BA0A0319BB03BB093A08B8003B08B900A9
:100FF0003C1F0034B609B60A0319B703B709003419
:00000001FF
