:10000000830100308A0004282030840024300F202F
:1000100083010A128A11D92F04068001840A04067A
:06002000031D0C28003452
:100F5C00831603139401223083129400031383121B
:100F6C00080083120313A200043083120313A100A0
:100F7C00FA3083120313A300C42FC42F831203135C
:100F8C00A30BC92FCA2FC32F83120313A10BCF2F6F
:100F9C00D02FBE2F83120313A20BD52FD62FBA2F0F
:100FAC00031383120800831603138701880183122D
:100FBC008801831607168312A0010A128A11AE2724
:100FCC000A128A11FC2F07308312031393001308A3
:100FDC008800F02F83160313141CF52FF62FF02F17
:100FEC0001300A128A11B7270A128A11E92F0A1244
:040FFC008A1104282A
:00000001FF
