:10000000830100308A00042883010A128A11702FAC
:1000100083120313A600A71B1628271B1E282708D8
:100020008A002608A60A0319A70A82008313271844
:1000300083172608A60A840000080800703472346A
:10004000653473347334203461346E34793420343D
:100050006B3465347934003444346134743461343D
:1000600020347234653463346534693476346534ED
:0E00700064342E342E342E342E342E340034CC
:100BD2000630831603139F008801890103138312D1
:100BE200080083120313091109150A128A116726D4
:0E0BF2000A128A1109110313831208008312DC
:100C0000031388000914A3000A128A11F2250A129C
:100C10008A1103138312080083120313880009103A
:100C2000A1000A128A11F2250A128A1103138312F3
:100C3000080001300A128A110C260A128A110A12BF
:100C40008A11F2250A128A110313831208008312F3
:100C500003130910A0002008803E0A128A11FF2504
:100C60000A128A1103138312080038300A128A11FB
:100C70000C260A128A110C300A128A110C260A124A
:100C80008A1101300A128A110C260A128A110313E2
:100C90008312080083120313A000200E0F39F00006
:100CA0000808F039700488000915091120080F3967
:100CB000F0000808F03970048800091509110A12BB
:100CC0008A1167260A128A110313831208008312FD
:100CD0000313A401A501EA3025026130031924029F
:100CE000031C732E742E752E832E83120313A40AF5
:100CF0000319A50AEA302502613003192402031CF6
:100D0000822E832E752E0313831208000A128A1175
:100D1000F2250A128A119E2E831203132208A700BD
:100D20002108A10A0319A20A0A128A1108200A122C
:100D30008A110A128A11FF250A128A1183120313DB
:100D40002208A70021080A128A1108200A128A1113
:100D50000038031DAC2EAD2E8C2E03138312080019
:100D600083120313A200D12E0A30F1008312031361
:100D700022080A128A11CA270A128A117008A000D2
:100D800020080A128A11FF250A128A110A30F1007E
:100D900022080A128A11CA270A128A11A100210800
:100DA000A2000A308312031322020318D82ED92E70
:100DB000B42E8312031322080A128A11FF250A1285
:100DC0008A1103138312080001300A128A110C26BB
:100DD0000A128A118F300A128A110C260A128A11FD
:100DE000132F831203132108A7002008A00A031958
:100DF000A10A0A128A1108200A128A110A128A11FB
:100E0000FF250A128A1118300A128A110C260A12BA
:100E10008A110A128A1125270A128A110A128A11C6
:100E200025270A128A11831203132108A70020081C
:100E30000A128A1108200A128A110038031D212F74
:100E4000222FF12E03138312080083120313A00133
:100E5000A1012008F0002108F1000030F11BFF3053
:100E6000F200F3007308803AF4000030803A740214
:100E7000031D442F00307202031D442FAF30710256
:100E8000031D442FC9307002031C472F482F492FE0
:100E90006D2F83120313A00A0319A10A2008F00082
:100EA0002108F1000030F11BFF30F200F30073085D
:100EB000803AF4000030803A7402031D692F00303C
:100EC0007202031D692FAF307102031D692FC930F3
:100ED0007002031C6C2F6D2F492F0313831208001F
:100EE0000A128A11E9250A128A110A128A11352674
:100EF0000A128A110A128A1119260A128A118030DE
:100F00000A128A110C260A128A111E30A100003022
:100F1000A2000A128A1186260A128A1181308316CB
:100F200099001815181283129817181618138C1296
:100F300083168C12C62F831203138C1EA02FA12F91
:100F4000C62F8C120A128A1119260A128A118030B1
:100F50000A128A110C260A128A112C30A1000030C4
:100F6000A2000A128A1186260A128A11C0300A12B9
:100F70008A110C260A128A111A08A00020080A12E7
:100F80008A11FF250A128A111A0888009B2F0A125B
:100F90008A110428F000F4010310FD307107031CCE
:100FA000F12FF301F0307105031DD92F0430F30048
:100FB000F10EF2010310F30AF10D031CDB2FF10C0B
:100FC000710870020318F000F20DF30BDF2FF41F0D
:100FD000EB2FF209F20A7208F41F0800F009F00A78
:100FE0000800F10C0318FA2FF10C031CF001031098
:100FF000F00C031C03107008F200F001F00DE72F55
:00000001FF
