:10000000830100308A0004282030840057300F20FC
:1000100083010A128A11922804068001840A0406C8
:10002000031D0C28003483120313DA00DB1B212884
:100030005B1B29285B088A005A08DA0A0319DB0AC5
:10004000820083135B1883175A08DA0A84000008B9
:100050000800253430342E343334663400342534EB
:100060006434003441342F344434203443346F3406
:100070006E3476346534723474346F3472340034D0
:100080002034203420340034293083120313BD007F
:100090000030BE002408B9002508BA002608BB00BD
:1000A0003930BC0027300A128A11D6210A128A116F
:1000B0002730BC008030BD000A128A116A200A1263
:1000C0008A1114300A128A1515270A128A1103138D
:1000D0008312080083120313071680288312031368
:1000E0003D08DB003C08BC0A0319BD0A0A128A114C
:1000F00013200A128A110A128A155B270A128A1122
:10010000831203133D08DB003C080A128A111320F6
:100110000A128A110038031D8E288F286E280313B7
:100120008312080083160313051487010A128A112B
:1001300028210A128A1114300A128A1515270A1268
:100140008A110A128A1503270A128A1114300A1218
:100150008A1515270A128A1100300A128A15F52607
:100160000A128A1114300A128A1515270A128A11E6
:100170003230BC000030BD000A128A116A200A1217
:100180008A1114300A128A1515270A128A11831649
:100190009F0183129F171F139F121F129F11831617
:1001A0009F1383121F14242940300A128A15F52642
:1001B0000A128A1114300A128A1515270A128A1196
:1001C0001F15E228831203131F19E728E828E228E5
:1001D000831203131E08A0002008F0000A128A11DF
:1001E0007C250A128A11A130F300A030F4003C30C3
:1001F000F5000A128A114A260A128A117008A10013
:100200007108A2007208A3002108A4002208A5001A
:100210002308A6000A128A1144200A128A111430F7
:100220000A128A1515270A128A114030BC000030C4
:10023000BD000A128A116A200A128A1114300A12A9
:100240008A1515270A128A11D4280A128A1104283D
:100250008312031307120F300A128A1515270A1288
:100260008A110330870087166430A40038293829A2
:1002700083120313A40B3D293E293729831203134C
:1002800087126430A4004529452983120313A40B67
:100290004A294B29442905300A128A1515270A12C2
:1002A0008A1187166430A400562956298312031335
:1002B000A40B5B295C295529831203138712643030
:1002C000A4006329632983120313A40B68296929F5
:1002D0006229643083120313A4006F296F298312EB
:1002E0000313A40B742975296E298312031387162F
:1002F0006430A4007C297C2983120313A40B812978
:1003000082297B298312031387126430A400892970
:10031000892983120313A40B8E298F29882905307C
:100320000A128A1515270A128A11023087008716C9
:100330006430A4009C299C2983120313A40BA129D7
:10034000A2299B298312031387126430A400A929D0
:10035000A92983120313A40BAE29AF29A829283099
:1003600083120313A400B529B52983120313A40B28
:10037000BA29BB29B42928300A128A155B270A1228
:100380008A1108300A128A155B270A128A110C306A
:100390000A128A155B270A128A1106300A128A1578
:1003A0005B270A128A110313831208008301C60017
:1003B000C2013C08C0004F2D4508253A031D402DC1
:1003C000FF30C400C301C101FC2CC6080319EC298D
:1003D0004608840083138001420808000230C007E9
:1003E00040028400831300083E2DC117FC2CC10A73
:1003F000FD290830C407FE30C407C11F0F2A04308E
:10040000C0074002840083130008F000840A00083B
:10041000F100840A0008F200840A00081F2A023052
:10042000C0074002840083130008F000840A00081B
:10043000F100700871080030F11BFF30F200F3008A
:100440007008CF007108D0007208D1007308D20084
:10045000411C492AD21F582A4F08F0005008F100C9
:100460005108F2005208F300F009F109F209F3090A
:10047000F00A0319F10A0319F20A0319F30A7008C2
:10048000CF007108D0007208D1007308D200C303F6
:10049000592AC11B582A5008F1004F08F000F201F8
:1004A000F301CF007108D0007208D1007308D200A8
:1004B000C1010B30C4074408F400F501F601F7014F
:1004C0004F08F0005008F1005108F2005208F30004
:1004D0000A128A113B277408C5004408F400F5018C
:1004E000F601F7014F30840083130A128A11B727EF
:1004F0000A128A1183120313D301D30AD401D5013E
:10050000D60156085202031D8F2A55085102031DB9
:100510008F2A54085002031D8F2A53084F02031CD0
:10052000BD2A4408F400F501F601F70153308400B8
:1005300083130A128A11C1260A128A118312031325
:10054000C303812AC20AC6080319B32A46088400D5
:1005500083134119AD2A2030AE2A30308000831237
:100560000313C60ABD2A4119B72A2030B82A3030F1
:100570000A128A15E7260A128A11C3034308803A31
:100580007F3E0318A22A411CD22AC20AC6080319B8
:10059000CE2A4608840083132D30152B2D300A12E5
:1005A0008A15E7264408F400F501F601F7015330F7
:1005B000840083130A128A11B7270A128A1173085A
:1005C00072047104700403191B2B83120313530864
:1005D000F4005408F5005508F6005608F7004F08D7
:1005E000F0005008F1005108F2005208F3000A121E
:1005F0008A113B274408F400F501F601F7010A12BD
:100600008A113B270A128A117408C300803A763E89
:10061000031C0C2B0730C307C20AC6080319182B8A
:100620004608840083134308303E8000C60AD22A5D
:100630004308303ECF2A0A30831203134502031CBD
:10064000232B0730C507C20AC60803192F2B4608FB
:10065000840083134508303E8000C60A362B4508C7
:10066000303E0A128A15E7260A128A11C11C4F2D44
:10067000C20AC6080319432B4608840083132E3090
:100680008000C60A492B2E300A128A15E7260A1264
:100690008A114708CF004808D0004908D1004A080D
:1006A000D2000430C1003F08C300422C0330C00711
:1006B0004002840083130008D300840A0008D40099
:1006C000840A0008D50007304402031C692B063059
:1006D000C4004408BF00C101F301F401F50153084F
:1006E000F0005408F1005508F2000A128A1122267F
:1006F0000A128A110318902BC101C10A5308F00095
:100700005408F1005508F2000A128A1125270A122E
:100710008A117008D3007108D4007208D500C30391
:10072000BF08031DAE2B5308F3005408F40055080E
:10073000F500F001F1013F30F2000A128A11F325B1
:100740000A128A118B260A128A117008CF007108CA
:10075000D0007208D1007308D200422C3F0AC302B5
:100760005308F0005408F1005508F2000A128A11EB
:100770008B267008CF007108D0007208D100730872
:10078000D2004F08F0005008F1005108F200520862
:10079000F3000A128A11B3267008F3007108F400FE
:1007A0007208F5005330840083130A128A11CE2593
:1007B00083120313C114CB01CB0ACC01CD01CE01AE
:1007C000F3012030F4004130F500533084008313EE
:1007D0000A128A1141260A30F400F501F601F701E8
:1007E000831203134B30840083130A128A11C1262B
:1007F0000A128A1183120313C40BE02BF301F401D4
:100800003F30F5005330840083130A128A11D0253B
:10081000831203135308F0005408F1005508F20046
:100820000A128A118B260A128A117008C7007108F1
:10083000C8007208C9007308CA004E084A02031DA6
:100840002B2C4D084902031D2B2C4C084802031D7C
:100850002B2C4B084702031C422C4B08C7024C08A8
:10086000031C4C0FC8024D08031C4D0FC9024E0853
:10087000031C4E0ACA02CF0A0319D00A0319D10A6F
:100880000319D20A0A30C4005B2AC20AC608031937
:10089000502C46088400831320308000C60A562C52
:1008A00020300A128A15E7260A128A11C303430868
:1008B000803A7E3E0318452C0230C0074002840077
:1008C00083130008C500402D0230C0074002840099
:1008D00083130008D300840A0008D400C50145082A
:1008E0005307DA005408DB005A080318DB0A0A121F
:1008F0008A1113200A128A1100380319812CC50AA3
:100900006F2C440845020318872C4508C40044088E
:10091000C31BBE2CFF3A4307031CBE2CC20AC608E9
:100920000319992C46088400831320308000C60ADE
:100930009F2C20300A128A15E7260A128A11C30357
:10094000872C5408DB0053080A128A1113200A125C
:100950008A11C500D30A0319D40AC20AC6080319AA
:10096000B82C46088400831345088000C60ABE2CB4
:1009700045080A128A15E7260A128A11C403440F91
:10098000A12C4F2D3E08DB003D080A128A111320CE
:100990000A128A112A3A031DD42C0230C0074002E1
:1009A000840083130008F82C3E08DB003D080A127F
:1009B0008A111320D03EC400BD0A0319BE0A3E08A6
:1009C000DB003D080A128A1113200A128A11C500A1
:1009D00030304502031CFC2C3A3045020318FC2C35
:1009E0000A30F10044080A128A15E9264507D03E6C
:1009F000C400BD0A0319BE0A3E08DB003D08BD0A5B
:100A00000319BE0A0A128A1113200A128A11C5009C
:100A1000003A0319E5292A3A0319EE29043A031981
:100A2000C22C763A0319F9293B3A0319572C073A95
:100A30000319F729023A0319562B0A3A0319F52923
:100A4000033A0319FB291C3A0319642C063A0319CB
:100A5000FD290D3A0319F92930304502031C402DB8
:100A60003A3045020318402D0A30F10043080A12BB
:100A70008A15E9260A128A114507D03EC300FC2CCC
:100A8000C20AC60803194B2D460884008313450883
:100A90008000C60A4F2D45080A128A15E7263E082F
:100AA000DB003D08BD0A0319BE0A0A128A11132091
:100AB0000A128A11C500C508031DDC29C6080319DE
:100AC000652D4608840083138001420808008408CD
:100AD00003190034720880008403710880008403C5
:100AE000700880000034F101F201F301F01FB32E11
:100AF000F103F203F303AE2EF101F201F301B32E81
:100B0000F801710D720DF600760803198B2DF80DA2
:100B1000F201F1170800F001F101F2010034F810C0
:100B2000740D750DF700770803199B2D0318F81441
:100B3000F501F4170800F701F301F401F5010800CD
:100B4000760803198B2DF113F80C760CF2000318BC
:100B5000F117672DF608031DBE2DF001F101F2011A
:100B6000672D72030319F00A0319F10A0319F20A37
:100B70000310F20CF10CF00CF60AAA2DF208031D7A
:100B8000B12D700871040319AD2DF11BA02DF603D2
:100B90000319AD2D0310F00DF10DC52D8030F506B4
:100BA0000008F000840A0008F100840A0008F2003E
:100BB000F42D76087702031CE82D031908000310B2
:100BC000F20CF10CF00CF60A76087702DD2D03101A
:100BD000F50CF40CF30CF70A7608770603190800F5
:100BE000E72D8030F506840180258F25D925781CD6
:100BF000012EF009F109F209F00A0319F10A0319AB
:100C0000F20AF81C0B2EF309F409F509F30A03198B
:100C1000F40A0319F50A7308F00774080318740F2F
:100C2000F10775080318750FF207F801F21FAA2DD6
:100C3000F009F109F209F00A0319F10A0319F20A9D
:100C40007814AA2D72087506803903192B2E750D9C
:100C5000750801380800F21375087F397202031D08
:100C6000392E74087102031D392E7308700203199E
:100C7000080003080238F51B013A83000318803886
:100C800008000008F000840A0008F100840A000847
:100C9000F2004B2E840180258F25F901FA01FB011A
:100CA0000730F5000310F40CF30C031C622E7008DF
:100CB000F90771080318710FFA0772080318720F09
:100CC000FB070310F00DF10DF20DF50B522E09305C
:100CD000F5006E2E0310FB0CFA0CF90C0310F40C4B
:100CE000F30C031C7D2E7008F90771080318710FAF
:100CF000FA0772080318720FFB07F50B6A2E7A3099
:100D00007707F607780CF8067908F0007A08F10002
:100D10007B08F200AA2D84018025F3018230F607BA
:100D2000F61B8B2DF030F607F61BA72E1830760237
:100D300003188B2DF608031DA02E78182D27080008
:100D4000F6030310F00DF10DF20DF30D9A2E0310C2
:100D5000F20CF10CF00CF60FA72E9D2EF31FB32E04
:100D600078142D27B42EF8018E30F6008401F30894
:100D70000319AA2D0310F30CF20CF10CF00CF60A77
:100D8000B72E0008F000840A0008F100840A000869
:100D9000F200840A0008F300C42F8301D901720D08
:100DA000730DD70057080319D92ED90DF301F21787
:100DB0000800F001F101F201F3010034D910760DC1
:100DC000770DD80058080319EA2E0318D914F70133
:100DD000F6170800D801F401F501F601F701080043
:100DE00057080319D92EF213D90C570CF300031826
:100DF000F217F12FD7080319202F73080319102FAA
:100E000073030319F00A0319F10A0319F20A03190B
:100E1000F30A0310F30CF20CF10CF00CD70AFA2EC3
:100E200070087104720473040319202FF21BF02E52
:100E3000D7030319202F0310F00DF10DF20D162F1B
:100E4000F001F101F201F301F12F710D720D003883
:100E5000031908008030F20608000310FF30F00785
:100E6000F009031CF107F109031CF207F209031C46
:100E7000F307F3090800840183120313D701F80173
:100E8000F901FA01FB01740875047604770403196B
:100E90004C2FC030D705572FF001F101F201F301BB
:100EA000F12F0310F40DF50DF60DF70DD70AF71F0E
:100EB000512FD70A0310F80DF90DFA0DFB0D770825
:100EC0007302031D6D2F76087202031D6D2F7508C6
:100ED0007102031D6D2F74087002031C7F2F78149C
:100EE0007408F0027508031C750FF1027608031CE4
:100EF000760FF2027708031C770FF3020310F70C4A
:100F0000F60CF50CF40CD70357083F39031D5A2F84
:100F1000571F972F0310FF30F007F009031CF1074C
:100F2000F109031CF207F209031CF307F309700827
:100F3000F4007108F5007208F6007308F7007808ED
:100F4000F0007908F1007A08F2007B08F300D71F5F
:100F5000F12F0310FF30F007F009031CF107F1092E
:100F6000031CF207F209031CF307F309F12F000831
:100F7000F000840A0008F100840A0008F200840AE4
:100F80000008F3003C2F84017008F8007108F90094
:100F90007208FA007308FB00F201F301F001F1019D
:100FA0000310FB0CFA0CF90CF80C031CE52F740869
:100FB000F00775080318750FF10776080318760F08
:100FC000F20777080318770FF307780879047A0493
:100FD0007B040319F12F0310F40DF50DF60DF70D39
:100FE000D02F84080319003473088000840372082A
:100FF000800084037108800084037008800000343E
:101DCE0083010800F0000030711870070310F00D49
:101DDE000310F10CF10803190800EB2E8312031304
:101DEE000712A4002408803E0A128A155B270A12E5
:101DFE008A1503138312080083120313071201308E
:101E0E000A128A155B270A128A1514300A128A15CD
:101E1E0015270A128A15031383120800831203135F
:101E2E00BD00043083120313BC00FA308312031377
:101E3E00BE00222F222F83120313BE0B272F282F13
:101E4E00212F83120313BC0B2D2F2E2F1C2F831229
:101E5E000313BD0B332F342F182F031383120800D7
:101E6E002F3083120313BD000030BE002408AA00D9
:101E7E002508AB002A30BC0024300A128A11D62164
:101E8E000A128A152430BC008030BD000A128A1155
:101E9E006A200A128A1514300A128A1515270A1298
:101EAE008A1503138312080083120313BE003E0E1D
:101EBE000F39F0000708F039700487008716643078
:101ECE00BF006A2F6A2F83120313BF0B6F2F702F61
:101EDE00692F8312031387126430BF00772F772F79
:101EEE0083120313BF0B7C2F7D2F762F83120313C8
:101EFE003E080F39F0000708F03970048700871686
:101F0E006430BF008B2F8B2F83120313BF0B902FC8
:101F1E00912F8A2F8312031387126430BF00982FDC
:101F2E00982F83120313BF0B9D2F9E2F972FFA30DE
:101F3E0083120313BF00A42FA42F83120313BF0B0E
:101F4E00A92FAA2FA32F03138312080083120313A2
:101F5E000716A400240E0F39F0000708F03970049C
:101F6E00870087166430A500BD2FBD2F8312031383
:101F7E00A50BC22FC32FBC2F8312031387126430FD
:101F8E00A500CA2FCA2F83120313A50BCF2FD02F54
:101F9E00C92F8312031324080F39F0000708F039F4
:101FAE007004870087166430A500DE2FDE2F8312A3
:101FBE000313A50BE32FE42FDD2F831203138712D8
:101FCE006430A500EB2FEB2F83120313A50BF02F1C
:101FDE00F12FEA2FFA3083120313A500F72FF72FF4
:101FEE0083120313A50BFC2FFD2FF62F0313831261
:021FFE000800D9
:00000001FF
